:100000000C9489050C94B1050C94B1050C94B105C0
:100010000C94B1050C94B1050C94B1050C94B10588
:100020000C94B1050C94B1050C945D090C94EF0788
:100030000C94B1050C94B1050C94B1050C94B10568
:100040000C94B1050C94EB180C94B1050C94B1050B
:100050000C94B1050C94B1050C94B1050C94000AF4
:100060000C94B1050C94B1050C94B1050C94B10538
:100070000C94B1050C94B1050C94B1050C94B10528
:100080000C94A3180C94B1050C94B1050C94B10513
:100090000C94B1050C94B1050C94B1050C94B10508
:1000A0000C94B1050C94B1050C94B105981B9B1BE5
:1000B0008A1B8E1B941BBC1BBC1BBC1B9F1BA31B46
:1000C000A71BAD1BB11BBC1BB71B12010002EF022B
:1000D00001404123368000010102030112010002A8
:1000E00000000040412336800001010203014172FB
:1000F0006475696E6F204C4C430055534220494F44
:1001000020426F6172640004030904080B000202BC
:100110000201000904000001020200000524001091
:10012000010524010101042402060524060001073B
:1001300005810310004009040100020A00000007C5
:1001400005020240000007058302400000100C0079
:10015000007FE040204F205FA059A047204C205F47
:10016000A040207FE00000100C000000003FC020F5
:10017000402F40224024402F4020403FC00000003C
:1001800000100C0000000000001F8010801680127C
:100190008010801F80000000000000100C00000094
:1001A00000000000000F000B0009000F000000001D
:1001B0000000000000100C00000000000000000023
:1001C0000006000600000000000000000000001013
:1001D0000C00000000000000000000020000000011
:1001E000000000000000000000100C00007FE04054
:1001F0002042204E204E20422042205FA040207FFF
:10020000E00000100C000000003FC020402240260B
:10021000402240274020403FC000000000100C005A
:1002200000000000001F8010801680128010801FC8
:1002300080000000000000100C0000000000000022
:10024000000F000B0009000F00000000000000007C
:1002500000100C0000000000000000000006000676
:100260000000000000000000000000100C00000072
:10027000000000000000000000020000000000007C
:100280000000000000100C00007FE07DE078E060DE
:1002900020706078E0706062207FE07FE0000010F6
:1002A0000C00007FE0706060206720602070207F7D
:1002B00020702070607FE00000100C00007FE07074
:1002C0006060206720602060206720602070607F71
:1002D000E00000100C00007FE06020602066207CC1
:1002E000607CE078E079E079E07FE00000100C00CD
:1002F000007FE07060606067E060606020672060A1
:100300002070607FE00000100C00007FE060606003
:100310006067E0606060207F20602060607FE000B8
:1003200000100C00007FE07E607C60786072606688
:1003300060602070207E607FE00000100C00007F75
:10034000E0606060207F20702070207F206020604F
:10035000607FE00000100C00007FE07060602067AC
:10036000206620786071E0602060207FE00000104F
:100370000C00007FE07CE070E070E07CE07CE07CE2
:10038000E0602060207FE00000100CFFF080108211
:100390001087109FD08F9087108F909DD0801080F5
:1003A00010FFF0100CFFF080108F909FD098D09F1E
:1003B000D08FD080D08FD08F908010FFF0100CFFA6
:1003C000F080108F909FD098D09FD09FD098D09FD2
:1003D000D08F908010FFF0100CFFF080109FD09F06
:1003E000D099D0839083108710861086108010FFDC
:1003F000F0100CFFF080108F909F9098109F909FAE
:10040000D098D09FD08F908010FFF0100CFFF0801C
:10041000109F909F9098109F909FD080D09FD09FCA
:10042000908010FFF0100CFFF08010819083908777
:10043000908D9099909FD08FD081908010FFF01078
:100440000CFFF080109F909FD080D08FD08FD080F5
:10045000D09FD09F908010FFF0100CFFF080108F85
:10046000909FD098D099D087908E109FD09FD080A9
:1004700010FFF0100CFFF0801083108F108F10838E
:1004800010831083109FD09FD08010FFF0D5F08D87
:1004900014A1C881CFD9F1AF200000000000003EB8
:1004A0005B4F5B3E3E6B4F6B3E1C3E7C3E1C183CE4
:1004B0007E3C181C577D571C1C5E7F5E1C00183C40
:1004C0001800FFE7C3E7FF0018241800FFE7DBE789
:1004D000FF30483A060E2629792926407F05050770
:1004E000407F05253F5A3CE73C5A7F3E1C1C0808CC
:1004F0001C1C3E7F14227F22145F5F005F5F060991
:100500007F017F006689956A606060606094A2FFE9
:10051000A29408047E040810207E201008082A1CDB
:1005200008081C2A08081E101010100C1E0C1E0CA7
:1005300030383E3830060E3E0E0600000000000047
:10054000005F00000007000700147F147F14242AB6
:100550007F2A122313086462364956205000080788
:100560000300001C2241000041221C002A1C7F1CA9
:100570002A08083E080800807030000808080808AB
:10058000000060600020100804023E5149453E0012
:10059000427F400072494949462141494D33181470
:1005A000127F1027454545393C4A494931412111BF
:1005B00009073649494936464949291E00001400B1
:1005C00000004034000000081422411414141414D4
:1005D000004122140802015909063E415D594E7C32
:1005E0001211127C7F494949363E414141227F41E7
:1005F00041413E7F494949417F090909013E414145
:1006000051737F0808087F00417F41002040413F2F
:10061000017F081422417F404040407F021C027F3E
:100620007F0408107F3E4141413E7F090909063E93
:100630004151215E7F091929462649494932030162
:100640007F01033F4040403F1F2040201F3F403874
:10065000403F631408146303047804036159494D4F
:1006600043007F4141410204081020004141417F85
:1006700004020102044040404040000307080020FB
:10068000545478407F2844443838444444283844FB
:1006900044287F385454541800087E090218A4A432
:1006A0009C787F0804047800447D40002040403D51
:1006B000007F1028440000417F40007C04780478CB
:1006C0007C080404783844444438FC18242418185E
:1006D000242418FC7C0804040848545454240404BA
:1006E0003F44243C4040207C1C2040201C3C4030A7
:1006F000403C44281028444C9090907C4464544CD6
:100700004400083641000000770000004136080030
:1007100002010204023C2623263C1EA1A161123ADA
:100720004040207A38545455592155557941215427
:10073000547841215554784020545579400C1E522C
:1007400072123955555559395454545939555454D0
:10075000580000457C410002457D420001457C4037
:10076000F0292429F0F0282528F07C545545002054
:1007700054547C547C0A097F4932494949323248F1
:10078000484832324A4848303A4141217A3A424058
:100790002078009DA0A07D39444444393D4040402C
:1007A0003D3C24FF2424487E4943662B2FFC2F2BFD
:1007B000FF0929F620C0887E09032054547941009E
:1007C00000447D413048484A32384040227A007A1D
:1007D0000A0A727D0D19317D2629292F28262929FB
:1007E000292630484D40203808080808080808081D
:1007F000382F10C8ACBA2F102834FA00007B000044
:1008000008142A142222142A14089500220095AAFA
:10081000005500AAAA55AA55AA000000FF00101012
:1008200010FF00141414FF001010FF00FF1010F050
:1008300010F0141414FC001414F700FF0000FF0063
:10084000FF1414F404FC141417101F10101F101FB1
:100850001414141F00101010F0000000001F1010DE
:1008600010101F10101010F010000000FF101010DA
:10087000101010101010FF10000000FF140000FFF7
:1008800000FF00001F10170000FC04F414141710E0
:10089000171414F404F40000FF00F71414141414D3
:1008A0001414F700F7141414171410101F101F1449
:1008B0001414F4141010F010F000001F101F0000AA
:1008C000001F14000000FC140000F010F01010FFD6
:1008D00010FF141414FF141010101F00000000F07B
:1008E00010FFFFFFFFFFF0F0F0F0F0FFFFFF000050
:1008F000000000FFFF0F0F0F0F0F38444438447CF7
:100900002A2A3E147E02020606027E027E026355F9
:100910004941633844443C04407E201E2006027E48
:10092000020299A5E7A5991C2A492A1C4C7201725A
:100930004C304A4D4D303048784830BC625A463DC4
:100940003E494949007E0101017E2A2A2A2A2A4479
:10095000445F444440514A444040444A51400000AE
:10096000FF0103E080FF000008086B6B08361236B9
:100970002436060F090F060000181800000010109A
:10098000003040FF0101001F01011E00191D171258
:10099000003C3C3C3C000000000010001100120034
:1009A000130015001600170018001A001C001D0087
:1009B0001F00210023002500270029002C002E0005
:1009C0003100340037003A003E0041004500490044
:1009D0004E00520057005C00620068006E00750017
:1009E0007B0083008B0093009C00A500AF00B90042
:1009F000C400D000DC00E900F70006011501260163
:100A000037014A015D01720188019F01B801D201DD
:100A1000EE010B022A024B026E029302BA02E402BA
:100A200010033F037003A403DC0317045504970469
:100A3000DD0427057505C80520067D06E006490783
:100A4000B8072D08A9082D09B9094D0AEA0A900B23
:100A5000400CFA0CC00D910E6F0F5A1053115B121F
:100A600072139A14D41520178018F519801B231DB2
:100A7000DE1EB420A622B524E4263429A72B402E5E
:100A80000031EA330037453ABC3D68414C456B497B
:100A9000C84D68524F57805C006200000002000998
:100AA0000F0000030401000C000000000000000023
:100AB0000000000000000000040802011040804017
:100AC0001020408040800802040180402010020174
:100AD00010801020404004040404040304050202B2
:100AE00002020403020202020606060606060404C7
:100AF0000202020400000000250028002B002E0046
:100B0000310000000000240027002A002D003000E2
:100B1000D80B11241FBECFEFDAE0DEBFCDBF12E04D
:100B2000A0E0B1E0ECEDFCE302C005900D92AA312B
:100B3000B107D9F729E0AAE1B2E001C01D92A934BA
:100B4000B207E1F71BE0C2E1DBE004C02297FE013F
:100B50000E94241EC031D107C9F70E94B4050C942D
:100B60006C1E0C94000008950E94A10A0E94B30517
:100B70008AE192E00E94E0090E94F309C0E0D0E01F
:100B80000E94F7092097E1F30E940000F9CF61501D
:100B900030F02091F100FC0120830196F8CF2898D5
:100BA00084E680932302089540911E0250911F0213
:100BB00020911C0230911D0242175307B4F490910A
:100BC000E8009570E1F39091E80092FD19C08093E0
:100BD000F10080911E0290911F0201968F73992758
:100BE000892B19F48EEF8093E80080911E0290917A
:100BF0001F02019690931F0280931E0281E00895C8
:100C000080E00895CF92DF92EF92FF920F931F93AF
:100C1000CF93DF931F92CDB7DEB7082F162FF42E98
:100C2000862F880F8E5F99830E94D40583E00E94EF
:100C3000D405E02EC02E9981D92E8C2D8E198117C6
:100C400098F4F601F7FE02C0849101C080810E94F1
:100C5000D405082F80E00E94D4058023FFEFCF1A2F
:100C6000DF0A8111EACF01C081E00F90DF91CF91BF
:100C70001F910F91FF90EF90DF90CF90089580919A
:100C8000D70081608093D70080EA8093D80089B52F
:100C9000806189BD89B5826089BD09B400FEFDCF40
:100CA00061E070E080E090E00E94790A8091D800D5
:100CB0008F7C80618093D8008091E000807F80935A
:100CC000E0000895CF93DF931F92CDB7DEB719826E
:100CD000CE0101960E94540B0E947C0CBE016F5FF6
:100CE0007F4F0E94F50B89810F90DF91CF9108957E
:100CF0002FB7FC012083F89467706093E900089592
:100D0000CF93DF931F92CDB7DEB7682FCE01019648
:100D10000E9478068091F20099819FBF0F90DF9129
:100D2000CF910895FF920F931F93CF93DF9300D03D
:100D3000CDB7DEB7F62E8A0190912202992311F0E9
:100D400057FF03C08FEF9FEF2BC0682FCE01019696
:100D50007A830E9478068091F20090E0A8017A815F
:100D6000801791070CF4AC01EF2DF72FF40E84E6F9
:100D7000FE1639F02898809323029091F100919308
:100D8000F7CF4115510521F08091F200882321F021
:100D900089818FBFCA0104C08BE68093E800F8CF39
:100DA0000F900F90DF91CF911F910F91FF900895B9
:100DB000CF93DF931F92CDB7DEB741E050E0BE0185
:100DC0006F5F7F4F0E949206019719F4898190E02E
:100DD00002C08FEF9FEF0F90DF91CF910895CF93D7
:100DE000DF931F92CDB7DEB7682FCE0101960E9428
:100DF00078069091E800892F807295FF04C0909149
:100E0000F20080E4891B99819FBF0F90DF91CF9101
:100E100008956F927F928F929F92AF92BF92CF92DE
:100E2000DF92EF92FF920F931F93CF93DF931F9266
:100E3000CDB7DEB7782E7B01C42EB52E809122026D
:100E4000882369F0042F152F8AEFD82E872D807202
:100E5000982E9AE3A92E872D8074882E11C08FEFCB
:100E60009FEF57C0872D0E94EF06682E81110CC09E
:100E7000DA94A9F361E070E080E090E00E94790AE2
:100E80000115110579F73BC0282F30E00217130731
:100E90000CF4602E672DCE0101960E947806809199
:100EA000E80085FF29C0262D30E0021B130B992096
:100EB00039F06A948FEF6816B1F01092F100F9CF13
:100EC000F701862D77FE07C0815058F094919093DA
:100ED000F1003196F9CF815020F091919093F1007B
:100EE000FACFE20EF31E8091E80085FF0FC00115D6
:100EF000110511F481100AC089818FBFC1CF5D989F
:100F000084E6809324028C2D9B2D03C0A092E800E0
:100F1000F3CF0F90DF91CF911F910F91FF90EF9042
:100F2000DF90CF90BF90AF909F908F907F906F9009
:100F300008951092E90010921F0210921E029093E1
:100F40001D0280931C020895CF92DF92FF920F93AF
:100F50001F93CF93DF9300D0CDB7DEB7F82E8A0171
:100F60006B0101151105B1F0F601F7FE02C0849185
:100F700001C0808149835A830E94D4050150110920
:100F8000FFEFCF1ADF0A49815A818111EACF8FEF33
:100F90009FEF01C0CA010F900F90DF91CF911F9179
:100FA0000F91FF90DF90CF9008951F93CF93DF9321
:100FB0001F92CDB7DEB7162F2091E80022FFFCCF9D
:100FC000612F79830E94C7058BEF8093E800812F02
:100FD0007981972F0F90DF91CF911F9108951F92E4
:100FE0000F920FB60F921124DF92EF92FF920F93A0
:100FF0001F932F933F934F935F936F937F938F93A1
:101000009F93AF93BF93EF93FF93CF93DF93CDB7AE
:10101000DEB76C97DEBFCDBF1092E9008091E8008B
:1010200083FF23C168E0CE0145960E94C70582EF89
:101030008093E8003D8937FF05C08091E80080FF7C
:10104000FCCF03C08EEF8093E800832F807609F0F9
:10105000F0C02E894F89D88C21110CC0303829F46A
:10106000809121028093F10002C01092F100109251
:10107000F100F4C0842F90E09D29213049F4311112
:10108000EDC0019709F0EAC0809121028D7F0AC06E
:10109000233059F43111E2C0019709F0DFC080918B
:1010A0002102826080932102D9C0253041F48091D1
:1010B000E80080FFFCCF40684093E300CFC02630BB
:1010C00009F08DC0EB8CFC8C22E0D2122CC080E0A9
:1010D00090E00E9499070E94620699E08E010F5FDE
:1010E0001F4FF801292F11922A95E9F79983DA8287
:1010F00091E09E8390EA98879AEF998720911E024B
:1011000030911F02275F3F4F3C832B838D83C701A4
:101110000E94990749E050E0B80180E00E94A407CE
:101120000E9462069BC0C7010E9499070E947C0C26
:10113000BE016B5E7F4F0E941E0C009719F00CF0F1
:101140008DC090C081E0D8120EC08B8D9C8D089709
:1011500019F481E080931B0280911B0281112FC042
:101160006CED70E031C0E3E0DE127CC08F89882333
:1011700049F1823029F440E86CE08AEF90E01CC02D
:10118000813029F440E86BE08EEE90E015C08330AA
:1011900009F068C00E947C0C8E010F5F1F4FB801E0
:1011A0000E943D0CF80101900020E9F73197E01B07
:1011B000F10B40E06E2FC8010E9402064DC06AECA0
:1011C00070E002C067E071E06115710509F44AC082
:1011D000FB01449150E080E80E94A4073FC0273003
:1011E00009F440C0283021F481E08093F10036C03A
:1011F0002930A1F53370B1F5E1E0F1E081E021E0C3
:1012000036E39081992361F08093E9002093EB000D
:1012100091919093EC003093ED008F5F873089F7C8
:101220008EE78093EA001092EA008F898093220271
:1012300015C08B8D9C8D0E949907898D811105C0E9
:10124000CE0145960E945F0B07C00E947C0CBE0138
:101250006B5E7F4F0E945C0C882321F08EEF8093A1
:10126000E80003C081E28093EB006C960FB6F8941F
:10127000DEBF0FBECDBFDF91CF91FF91EF91BF9148
:10128000AF919F918F917F916F915F914F913F911E
:101290002F911F910F91FF90EF90DF900F900FBE55
:1012A0000F901F9018958093E9008091F200882399
:1012B00019F08AE38093E80008951F920F920FB609
:1012C0000F9211242F933F934F935F936F937F93CC
:1012D0008F939F93AF93BF93CF93EF93FF93C0915F
:1012E000E1008091E100837F8093E1008093E10041
:1012F000C3FF0FC01092E90081E08093EB001092D1
:10130000EC0082E38093ED001092220288E080934B
:10131000F000C2FF19C083E00E94530980912402AB
:10132000882339F0809124028150809324028823FD
:1013300089F180912302882339F080912302815022
:1013400080932302882341F1C4FF10C08091E20002
:101350008E7E81608093E2008091E1008F7E809399
:10136000E100809120028E7E806111C0C0FF16C016
:101370008091E2008E7E80618093E2008091E100A6
:101380008E7E8093E100809120028E7E816080932A
:10139000200204C05D9ACDCF289AD6CFFF91EF915D
:1013A000CF91BF91AF919F918F917F916F915F91FD
:1013B0004F913F912F910F900FBE0F901F90189556
:1013C0001092220210922102109220020E943F06E7
:1013D000E1EEF0E080818E7E80838DE08093E200FC
:1013E000559A209A08950E94900C0C94D10C0E945A
:1013F000BC0C882321F00E94700D0C94CD0C089534
:101400001F920F920FB60F9211242F933F938F9339
:101410009F93AF93BF938091260290912702A09152
:101420002802B09129023091250223E0230F2D37A5
:1014300020F40196A11DB11D05C026E8230F0296D8
:10144000A11DB11D209325028093260290932702AF
:10145000A0932802B093290280912A0290912B0236
:10146000A0912C02B0912D020196A11DB11D809377
:101470002A0290932B02A0932C02B0932D02BF91CD
:10148000AF919F918F913F912F910F900FBE0F9031
:101490001F9018952FB7F89460912602709127023B
:1014A00080912802909129022FBF08953FB7F894A8
:1014B00080912A0290912B02A0912C02B0912D02D2
:1014C00026B5A89B05C02F3F19F00196A11DB11D9F
:1014D0003FBF6627782F892F9A2F620F711D811DBC
:1014E000911D42E0660F771F881F991F4A95D1F71B
:1014F0000895CF92DF92EF92FF92CF93DF936B012B
:101500007C010E94560AEB01C114D104E104F104EC
:1015100089F00E9482110E94560A6C1B7D0B683E66
:10152000734090F381E0C81AD108E108F108C8516E
:10153000DC4FEACFDF91CF91FF90EF90DF90CF901B
:101540000895789484B5826084BD84B5816084BD3B
:1015500085B5826085BD85B5816085BDEEE6F0E02C
:10156000808181608083E1E8F0E010828081826088
:101570008083808181608083E0E8F0E08081816009
:101580008083E1E9F0E080818260808380818160F6
:101590008083E0E9F0E0808181608083E1ECF0E02D
:1015A000808184608083808182608083808181608B
:1015B0008083E3ECF0E0808181608083E0ECF0E008
:1015C000808182608083E2ECF0E0808181608083B2
:1015D000EAE7F0E08081846080838081826080839C
:1015E0008081816080838081806880830895CF932B
:1015F000DF931F92CDB7DEB76983DC01ED91FC91DB
:101600000280F381E02D41E050E0BE016F5F7F4F2B
:1016100009950F90DF91CF910895CF93DF93EC015F
:101620008C859D8597FF05C082E00E94D8069D8726
:101630008C878C859D85DF91CF91089583E00C94F4
:101640005309FC018485958597FD06C082E00E94C0
:10165000800690E00196089582E00E94800690E066
:101660000895FC018485958597FD05C02FEF3FEF18
:1016700035872487089582E00C94D806CF93DF93B2
:10168000EC0180911201882331F083E00E94090768
:101690001816190634F081E090E09B838A8380E07D
:1016A00090E0DF91CF910895FC0120812E5F20838F
:1016B00042E450E06BE071E080E80C94A407FC0188
:1016C00021818081813A59F4213209F05CC047E0E0
:1016D00050E06BE071E080E00E94A40767C08132B7
:1016E00009F051C0233289F4838190E0982F882734
:1016F0003281832BA0E0B0E0809307019093080132
:10170000A0930901B0930A010FC0203239F467E0B9
:1017100070E08BE091E00E94D5070AC0223221F4EC
:1017200082818093120104C02D7F203209F03EC0D7
:1017300080910B0190910C01A0910D01B0910E01CF
:10174000803B9440A105B10501F58091120180FD17
:101750001CC080910008909101089093FF0A80932B
:10176000FE0A87E797E790930108809300082BE033
:1017700088E190E00FB6F894A895809360000FBEC2
:101780002093600013C080E0089588E10FB6F894BC
:1017900080936000109260000FBEA8958091FE0AB1
:1017A0009091FF0A909301088093000881E00895CA
:1017B000109231021092300288EE93E0A0E0B0E087
:1017C0008093320290933302A0933402B093350297
:1017D0008BE591E090932F0280932E028FEF9FEF85
:1017E00090933B0280933A020895EF92FF920F93F9
:1017F0001F93CF93DF937B01FC01C281D38100E073
:1018000010E0209781F0E881F9810280F381E02DDA
:10181000B701CE01099597FD08C0080F191F08846C
:10182000D985C02DEECFC80102C08FEF9FEFDF91A9
:10183000CF911F910F91FF90EF9008950F931F93F9
:10184000CF93DF938B01FC01C281D381209771F08C
:10185000E881F9810480F581E02DB801CE01099578
:10186000009731F40884D985C02DF0CF80E090E056
:10187000DF91CF911F910F9108950F931F93CF93F5
:10188000DF938B01FC01C281D381209771F0E88145
:10189000F9810680F781E02DB801CE010995080F86
:1018A000111D0884D985C02DF0CFF8011082DF9179
:1018B000CF911F910F9108950F931F93CF93DF93B3
:1018C0008B01FC01C281D381209771F0E881F981FD
:1018D0000190F081E02DB801CE010995811106C07B
:1018E0000884D985C02DF0CF80E001C081E0DF9170
:1018F000CF911F910F9108958091820281110DC0A7
:1019000082E080937E0284E080937F0210928102C5
:101910001092800281E0809382028EE792E0089527
:10192000E4E6F0E080818064808380818160808350
:10193000808180688083808182608083E5E6F0E03A
:101940008081816080830E949E140E94C1130E9446
:101950001E170E9439130E9429140E9496140C9499
:10196000101683B7817F83BF83B7816083BF88955B
:1019700083B78E7F83BF0895CF93DF931F92CDB738
:10198000DEB70E94CF13882321F089830E94481478
:1019900089810F90DF91CF9108950E9420150C94BA
:1019A000821541E050E060E08AE892E00C948311F7
:1019B0000E9433190E94940D0E94BA100E94D81000
:1019C0000E94C80D0E94C80D81E080938A0208958C
:1019D0000E949B0D0E9449100E94EA100E94ED197E
:1019E0000E945A1B882369F00E94D510811104C0FF
:1019F0000E94C10F882311F084E001C082E080932F
:101A00008A020895CF93DF930E949B0D0E94491094
:101A10000E94EA100E949314C82F0E949014D82F9D
:101A2000C4FF03C00E94650F0EC0C2FF03C00E9426
:101A3000320F09C0C6FF03C00E94920F04C0C5FF49
:101A400005C00E94010F83E080938A02D370D330D7
:101A500021F40E94751010928A02DF91CF910895AF
:101A60000E949B0D0E9449100E94EA100E946D1B6B
:101A7000811102C00E94C80D81E080938A020895FE
:101A80000E949B0D0E9449100E94EA1087E691E097
:101A90009F938F9386E08F931F920E9453150E940D
:101AA000D5100F900F900F900F90882319F08CE6AF
:101AB00091E002C082E791E09F938F9387E08F933C
:101AC0001F920E9453150F900F900F900F900E943D
:101AD000931480FF04C00E94751010928A0208952A
:101AE00080918A02823079F030F4882351F081307D
:101AF00071F40C94E80C833041F0843041F40C9480
:101B0000400D0C94D80C0C94020D0C94300D1F92C7
:101B10008F9387E791E09F938F930E9413130F9009
:101B20000F900F900F90089541E150E060E08BE836
:101B300092E00C94831185E891E09F938F931F921C
:101B40001F920E9453158AE891E09F938F9381E042
:101B50008F931F920E9453158FE891E09F938F936C
:101B60001F9280E18F930E94531585E991E09F9326
:101B70008F9382E08F9381E18F930E9453158DB7ED
:101B80009EB740960FB6F8949EBF0FBE8DBF0895C6
:101B9000EF92FF920F931F93CF93DF9380918B026D
:101BA00060E170E0681B7109882777FD8095982FA8
:101BB0000E94FA164BE852E0E12C20E030E0F12CD4
:101BC000FA01E20FF31F8181811103C0662311F135
:101BD0006150F3942C5F3F4F2031310589F7E39436
:101BE0004F5F5F4F84E0E812E8CF1F9284E38F934A
:101BF0008AE991E09F938F9384EA91E09F938F937A
:101C00000E9413130F900F900F900F900F900F9052
:101C100084E0F82ECE2DD0E084E0F89E80011124DF
:101C2000D801A557BD4FAC0FBD1F11968C918823CD
:101C300099F01F9285E38F938AE991E09F938F93A8
:101C400021ED31E03F932F930E9413130F900F90DB
:101C50000F900F900F900F906AE070E080E090E09E
:101C60000E94FA16693071058105910510F042E075
:101C700001C041E0F801E557FD4FEC0FFD1F418326
:101C800080918B028F5F80938B026E2D8F2DDF9161
:101C9000CF911F910F91FF90EF900C94191AEF9232
:101CA0000F93E62FFF27E7FDF095A82FBB27A7FD91
:101CB000B095AA0FBB1FAA0FBB1FA557BD4FAE0FF4
:101CC000BF1F841308C0621306C011964C910F9178
:101CD000EF900C94DC1A11969C91119734E043021A
:101CE000F0011124E557FD4FE20FF11D27FDFA9594
:101CF000918311961C92E02E01810E94571A0F9138
:101D0000EF9008958F929F92AF92BF92CF92DF9201
:101D1000EF92FF920F931F93CF93DF9300D0CDB735
:101D2000DEB7B82EA62E942F322F262F482F142F31
:101D3000190FF22EF30E143008F050C063E06F1547
:101D400008F44CC074E01702F0011124E557FD4F70
:101D5000EF0DF11DF7FCFA956F018FEFC81AD80A45
:101D60008181811103C02F2D412FE1CF9B2DE4E014
:101D70009E0240011124B40165577D4F4B018A0C2E
:101D8000911CA7FC9A94F4019181981327C06F2DA0
:101D9000812F2A8349830E94401B2A814981811116
:101DA0001DC0E02EF60100812F2D412F6A2D8B2DB5
:101DB0000E94571AF4011182F60140814F5F40835F
:101DC0006F2D812F0E94151BF60180810E94C51086
:101DD00080918B02815080938B0204C06A2D8B2DE1
:101DE0000E944F0E0F900F90DF91CF911F910F9196
:101DF000FF90EF90DF90CF90BF90AF909F908F902B
:101E00000895DF92EF92FF920F931F93CF93DF938A
:101E10000E943A192EE8E22E22E0F22E13E0C0E0F2
:101E2000D0E0D12CF701EC0FFD1F8181882339F020
:101E300000E220E04FEF612F8D2D0E94820ED3949F
:101E40002496C031D10571F7115081E0E81AF108EC
:101E50001F3F29F7DF91CF911F910F91FF90EF90D6
:101E6000DF900895DF92EF92FF920F931F93CF932D
:101E7000DF930E943A194BE8E42E42E0F42E10E082
:101E8000C0E0D0E033E0D32EF701EC0FFD1F8585D5
:101E9000882339F004E020E041E0612F8D2D0E947D
:101EA000820EDA942497C03F8FEFD80769F71F5F3F
:101EB0008FEFE81AF80A143019F7DF91CF911F91CC
:101EC0000F91FF90EF90DF900895EF92FF920F93A4
:101ED0001F93CF93DF930E943A195BE8E52E52E0FF
:101EE000F52E10E0C0E0D0E0F701EC0FFD1F81817E
:101EF000882339F000E12FEF40E06C2F812F0E9402
:101F0000820E2196C430D10579F71F5F84E0E80E78
:101F1000F11C143039F7DF91CF911F910F91FF9091
:101F2000EF900895EF92FF920F931F93CF93DF935B
:101F30000E943A1967E9E62E62E0F62E13E0C0E04F
:101F4000D0E06C2F6D5FF701EC0FFD1F84818823BB
:101F500031F000E421E040E0812F0E94820E2197C1
:101F6000CC3F8FEFD80769F7115084E0E81AF108E9
:101F70001F3F29F7DF91CF911F910F91FF90EF90B5
:101F800008958F929F92AF92BF92DF92EF92FF924D
:101F90000F931F93CF93DF93CDB7DEB728970FB67C
:101FA000F894DEBF0FBECDBF80918B02803108F464
:101FB00048C01D8281E08E831F829FEF988799839E
:101FC0001A828B831C822BE832E0E12C4E0149E01F
:101FD000840E911C80E090E0F12CFE0135965F01AB
:101FE000AE014F5F5F4F8901080F191FD5017D9129
:101FF0005D017F0DFA01D190AF01743090F4DE0CD9
:10200000F3E0FD1570F064E0769FF0011124E557D0
:10201000FD4FED0DF11DD8011196DC90E181DE162A
:1020200081F0A814B90411F7F3940496B4E0FB12FC
:10203000D4CFE3942F5F3F4FF4E0EF12CBCF81E09A
:1020400001C080E028960FB6F894DEBF0FBECDBF6A
:10205000DF91CF911F910F91FF90EF90DF90BF9094
:10206000AF909F908F90089580E190E00E94401380
:102070000E946113611571058105910511F00E949F
:10208000181680E190E00E9440130E941E160C94E6
:10209000A5131F93CF93DF93ECE9F2E081818F9337
:1020A00080818F93CEEED1E0DF93CF9381E08F9349
:1020B00010E11F930E945315EEE9F2E081818F93A6
:1020C00080818F93DF93CF9383E08F931F930E9440
:1020D00053158DB79EB70C960FB6F8949EBF0FBEE2
:1020E0008DBFDF91CF911F91089580919C029091B7
:1020F0009D0220919E0230919F0282179307D0F09B
:1021000090939F0280939E0280E090E00E94401393
:1021100082E30E94861380E30E94861384E30E9478
:10212000861388E30E94861380919E0290919F02FD
:102130000C949613089510929F0210929E0280E0D4
:1021400090E00E9440130E944513823391F40E9454
:102150004513803371F40E944513843351F40E9477
:102160004513883331F40E94541390939F02809357
:102170009E02089545E050E060E08CE992E00E9404
:1021800083110E9434100C949B108A3018F091E057
:102190009093A00220919C0230919D02280F311D46
:1021A00030939D0220939C0208958091A00208958F
:1021B00048E750E060E081EA92E00C948311E1EAA4
:1021C000F2E0808181111082359683E0E931F807D1
:1021D000C1F70895CF93DF93C3EAD2E0FE013297AF
:1021E0008081882339F049815A81688131968081C4
:1021F0000E948D15259683E0CB31D80779F7DF91C2
:10220000CF91089595E0899FF0011124EF55FD4F7E
:10221000718352833483238381E080830895E22F86
:10222000F0E0EE0FFF1FED5BFE4F208131810C943B
:102230000211E22FF0E0EE0FFF1FE15DFE4F208163
:1022400031810C9402110F931F93CF93DF9300D031
:1022500000D01F92CDB7DEB710E02230F0F01F9211
:102260009DE39F9322EF31E03F932F932DEF31E0D9
:102270003F932F934C835D836A837B8389830E9482
:1022800013130F900F900F900F900F900F904C81A1
:102290005D816A817B81898108C0211106C0F801B6
:1022A000EE0FFF1FEF5DFE4F05C0F801EE0FFF1FA1
:1022B000ED5EFE4F208131810F900F900F900F90B7
:1022C0000F90DF91CF911F910F910C940211CF933A
:1022D000DF93E1EAF2E0A3EAB2E08081882349F0EB
:1022E000ED0121978881891304C08C91871301C067
:1022F00010823596159683E0E931F80771F7DF9182
:10230000CF91089508954115510549F01416150609
:1023100034F4FC016083415051090196F7CF0895D0
:10232000CF93DF939B01C52F0E94CD1DFB01D82FBA
:102330001E161F063CF45C2FB901CF010E949011BC
:10234000482FC92FD05DE42FFC2FD193CF01DF910F
:10235000CF910895AF92BF92CF92DF92EF92FF920A
:102360000F931F93CF93DF935B01FA01102FFE2C85
:102370000E94CD1DEB016C011C161D061CF02230C5
:10238000310554F021503109E12C012FAF01B50185
:10239000CE010E94AA11FC01CF010196C114D10403
:1023A00021F4CD2B11F4FF2021F020E32C0D20830C
:1023B00001C01083DF91CF911F910F91FF90EF909B
:1023C000DF90CF90BF90AF9008958F929F92AF9281
:1023D000BF92CF92EF920F931F93CF93DF934B0156
:1023E0005C01C02F1E2DDC2D80E188169104A10414
:1023F000B10418F4223031058CF021503109CD2E72
:10240000E12C0C2FC501B401E4E0969587957795F2
:102410006795EA95D1F70E94E511AC0194012F7000
:102420003327CA0101962115310531F489288A28FC
:102430008B2811F4112351F02A30310510F0DA50B5
:1024400001C0D0E3D20FFA01D08302C0FA01C083E9
:10245000DF91CF911F910F91EF90CF90BF90AF90F0
:102460009F908F900895CF92DF92EF92FF92CF933B
:102470006B017C01C22F80E1C816D104E104F10494
:1024800060F0C701B601F4E096958795779567955A
:10249000FA95D1F70E943312AC01C6018F709927CB
:1024A0008A30910518F026EF2C0F01C020E3280F89
:1024B000FA012193CF01CF91FF90EF90DF90CF9061
:1024C0000895FB01DC012D91CD01222311F0219310
:1024D000F9CFCF0108958F929F92AF92BF92CF9282
:1024E000EF92FF920F931F93CF93DF93FC01EB01C9
:1024F000DA0110E2812C912C0DE2F02E88818823E4
:1025000009F484C0853239F05E012FEFA21AB20AB5
:102510008083ED0179C089815E01803321F032E052
:10252000A30EB11C05C083E0A80EB11C8A8110E384
:1025300090ED980F9A3078F4882E992487FC909427
:1025400090E3891A9108E501888195012F5F3F4F3B
:10255000590121E001C020E08C3681F134F483364A
:1025600009F44EC0843669F051C08337F1F18837E1
:1025700009F04CC0ED0122966D917C9180E090E0D5
:1025800023C0ED0122968D919C9197FF05C09195F6
:1025900081959109F0823196222351F0EE24E39443
:1025A000012F9401AF016AE070E00E94AA1124C0DB
:1025B000AF016AE070E00E9490111EC0ED01249608
:1025C0006D917D918D919C91222351F0A1E6CA2EAF
:1025D000EE24E394012F9401AF010E94E5110CC099
:1025E00021E6AF010E94331207C0ED012296BF0120
:1025F0008D919C910E946112FC01DE01E5017ECF6C
:10260000ED0122968C9180833196F7CF1082DF9175
:10261000CF911F910F91FF90EF90CF90BF90AF900F
:102620009F908F900895CF93DF93CDB7DEB7A89793
:102630000FB6F894DEBF0FBECDBFFE01BD9661910F
:102640007191AF01CE0101960E946B128E010F5F56
:102650001F4FF02EF094F80141918F01442331F087
:1026600060E08F2D800F0E942E15F5CF0E9420155F
:10267000FFCF42E050E060E089E193E00C948311E9
:1026800090931A03809319030895F999FECF8091CE
:10269000190390911A039C012F5F3F4F30931A0347
:1026A000209319030C94561ECF930E944513C82FF4
:1026B0000E9445132C2F30E0A901582BCA01CF915D
:1026C0000895CF92DF92EF92FF92CF93DF930E9413
:1026D0004513C82F0E944513D82F0E944513C82EBA
:1026E000D12CE12CF12C7601DD24CC24DD2ACC2A5E
:1026F0000E944513A7019601582BCA01B901DF9129
:10270000CF91FF90EF90DF90CF900895682FF999C7
:10271000FECF8091190390911A039C012F5F3F4FC8
:1027200030931A03209319030C945E1ECF93DF930A
:102730001F92CDB7DEB799830E9486139981892FA6
:102740000F90DF91CF910C9486131F93CF93DF935B
:1027500000D0CDB7DEB7182F862F79839A830E94D9
:1027600086137981872F0E948613812F0E948613FA
:102770009A81892F0F900F90DF91CF911F910C9428
:10278000861341E150E060E08BE193E00E94831109
:102790008CE380931B0380E1809327030895CF92FD
:1027A000DF92EF92FF920F931F930E944A0A2091AB
:1027B0002803222391F020912203C62EC21AC09230
:1027C000260320911C0330911D032F5F3F4F309350
:1027D0001D0320931C031092280300911E031091E7
:1027E0001F03209120033091210360177107820796
:1027F000930730F4061B023020F10E94B10C21C077
:1028000020912B032F5F20932B03209127036B0133
:102810007C01C20ED11CE11CF11CC0921E03D0929F
:102820001F03E0922003F092210360932203709330
:102830002303809324039093250381E0809328034E
:1028400001C080E01F910F91FF90EF90DF90CF903B
:10285000089545E050E060E08CE293E00E9483112F
:1028600062E089E00E94BD1B62E085E00E94BD1B22
:1028700062E088E00E94BD1B62E08AE00E94BD1B0E
:1028800062E082E10E94BD1B62E083E10C94BD1B0B
:1028900043B186B12FB190E08095909580749927CF
:1028A00034E0959587953A95E1F730E0209530959D
:1028B000207C332756E0359527955A95E1F7822BF2
:1028C000932B40954077842B40912C0320912D032E
:1028D0002827342F3095232320932D03382F30952C
:1028E000342330932E0380932C03247721F42091FA
:1028F0003003211106C080932F032AE02093300378
:1029000002C010922F03847741F080913003882316
:1029100031F0815080933003089510923003089570
:1029200080912C03089580912D03089508958EBD04
:1029300000000DB407FEFDCF8EB50895CF92DF9253
:10294000EF92FF920F931F93CF93DF9340E054E0F9
:1029500060E081E393E00E9483110E942C1C8CB5FF
:102960008C7F8CBD8DB581608DBD61E084E00E945F
:10297000BD1B61E086E00E94BD1B61E08CE00E940F
:10298000BD1B61E08CE00E94F61B61E070E080E01E
:1029900090E00E94790A60E08CE00E94F61B6AE0F9
:1029A00070E080E090E00E94790A61E08CE00E9493
:1029B000F61BECEDFAE0E491F0E0EE0FFF1FEC50B7
:1029C000F54FC591D491EAEDFAE0E491F0E0EE0F15
:1029D000FF1FEC50F54F05911491EEEBFAE0D49007
:1029E000ECEBFAE0C49088818D298883F80180811E
:1029F0009C2D9095892380838881D0948D21888314
:102A00002DE8E22E24E0F22EF70184910E94971423
:102A1000FFEFEF1AFF0A8AE9E81684E0F806A1F74B
:102A2000F80180818C29808388818D218883DF91C2
:102A3000CF911F910F91FF90EF90DF90CF9008956D
:102A4000CF93DF93C1E3D3E089910E94971487E08D
:102A5000C133D807C9F7DF91CF910895853110F5BB
:102A6000683000F590E8699FB001112495E04902B3
:102A7000A001112420E030E046565B4F96E0899F8C
:102A8000600D711D11246F5C7C4FFA01E20FF31F82
:102A9000E491DB01A20FB31FEC932F5F3F4F253072
:102AA000310599F708951F93CF93DF93CDB7DEB724
:102AB000A8970FB6F894DEBF0FBECDBFAE014E5C37
:102AC0005F4F68A979A9CE0101960E946B1210E0B0
:102AD0008EA5810FE1E0F0E0EC0FFD1FE10FF11D8D
:102AE0004081442329F06FA50E942E151F5FF0CF6F
:102AF000A8960FB6F894DEBF0FBECDBFDF91CF9181
:102B00001F91089581E393E0FC010024119211923A
:102B1000119211920394D1F708952F923F924F9200
:102B20005F926F927F928F929F92AF92BF92CF925D
:102B3000DF92EF92FF920F931F93CF93DF93FA01EF
:102B40009490DA01129631968490212C312C7727BB
:102B500067FD7095E82EFF24E7FCF094281408F038
:102B60004CC08101060F171F980143E0359527954A
:102B70004A95E1F73695322F222737952795C801D8
:102B8000877099275524539401C0550C8A95EAF70C
:102B9000FD0150E02E0D3F1DDF01591550F50034A9
:102BA000110538F56490A0E0B0E0C0E87C2E852FD8
:102BB00090E05C01AE0CBF1C820F931F8F5C9C4F9A
:102BC0006501CA0EDB1E40E8C416D10450F4D72CB0
:102BD000D62039F06C01CA0EDB1EE601488045287C
:102BE000488276941196A830B10551F7585F319616
:102BF000D3CFDFEF2D1A3D0AB1CFDF91CF911F91D7
:102C00000F91FF90EF90DF90CF90BF90AF909F908B
:102C10008F907F906F905F904F903F902F9008958E
:102C20004BE952E16CE776EF81E397E00C94391DB4
:102C3000AB01BC0181E397E00C94391D2F923F92C8
:102C40004F925F926F927F928F929F92AF92BF92BC
:102C5000CF92DF92EF92FF920F931F93CF93DF9368
:102C6000CDE3D7E0488059806A807B80A5E3B7E058
:102C7000CD90DD90ED90FC9089E3282E87E0382EF2
:102C8000F10180809180A280B380D501C4018C25A0
:102C90009D25AE25BF2541E357E0FA010081118152
:102CA000228133813F7780279127A227B3278C0188
:102CB0009D01000F111F221F331F082719272A27E4
:102CC0003B27D301C201B695A79597958795842593
:102CD0009525A625B72580279127A227B327C0824F
:102CE000D182E282F38288839983AA83BB832C01F9
:102CF0003D01F1E04F2255246624772470946094BE
:102D000050944094411C511C611C711C409141071E
:102D10005091420760914307709144074421552127
:102D200066217721482559256A257B25E5E3F7E0CB
:102D30004083518362837383AC01BD01EAE0440F99
:102D4000551F661F771FEA95D1F740275127622745
:102D5000732700914507109146072091470730914E
:102D600048070421152126213721402751276227B2
:102D70007327F1014083518362837383052F162FDC
:102D8000272F33270C0D1D1D2E1D3F1DBC01CD010E
:102D90006027712782279327017011272227332765
:102DA000CC24DD247601C01AD10AE20AF30A00918C
:102DB000490710914A0720914B0730914C07C022D8
:102DC000D122E222F3226C257D258E259F25DF91DD
:102DD000CF911F910F91FF90EF90DF90CF90BF9018
:102DE000AF909F908F907F906F905F904F903F90AB
:102DF0002F900895CF93DF9300D000D0CDB7DEB7EA
:102E00009B01AC0169833A834B835C830E941E164D
:102E100029813A814B815C810E94E11D97FF07C0A7
:102E200090958095709561957F4F8F4F9F4F0F9034
:102E30000F900F900F90DF91CF9108954AE150E0ED
:102E400060E08DE497E00E94831161E084E10E94DC
:102E5000BD1B61E085E10E94BD1BEAEEFAE0E49152
:102E6000F0E0EE0FFF1FEC50F54F85919491909399
:102E7000620780936107ECECFAE0E491E09363076A
:102E8000EBEEFAE0E491F0E0EE0FFF1FEC50F54FAF
:102E9000859194919093650780936407EDECFAE037
:102EA000E491E093660710929000A1E9B0E01C92D3
:102EB00010928000E1E8F0E010828C9188608C93A1
:102EC0008C9181608C938081886080838081816017
:102ED0008083E5E6F0E08081877F8083E4E6F0E0B0
:102EE0008081877F8083089590E0FC01E35BF84F49
:102EF0001182FC01EE0FFF1FE80FF91FE35BF84F93
:102F0000A489B5899C918689809589238C9308959D
:102F10004115510591E06907710548F036E0769555
:102F20006795579547953A95D1F793E001C091E0A1
:102F30004150510961097109811110C080919100BE
:102F4000887F892B8093910050939900409398003B
:102F5000809171008260809371000895809181005A
:102F6000887F892B8093810050938900409388004B
:102F700080916F00826080936F000895CF93C82F77
:102F8000813021F480915C07811126C0E62FF0E0AA
:102F9000EE0FFF1FE656F64F2591349140E050E0CA
:102FA000C11108C02093540730935507409356072A
:102FB00050935707EC2FF0E0E35BF84F81E08183FB
:102FC00060E074E284EF90E00E94031EBA01A90160
:102FD0008C2FCF910C948817CF910895811106C042
:102FE000909171009D7F9093710005C090916F004A
:102FF0009D7F90936F0090E0FC01EE0FFF1FE80FA4
:10300000F91FE35BF84FA489B5899C918689809567
:1030100089238C93089580E00E94EE1781E00E943E
:10302000EE1710924D070895CF93DF93CDE0D2E0D5
:10303000E0915A07F0915B07BF016F5F7F4F70937C
:103040005B0760935A072491922F907F822F8F7095
:10305000903971F028F49038F1F40E947417E8CF99
:10306000903E81F0903FB9F4DF91CF910C940B1812
:103070003296F0935B07E0935A07FB0164910E943C
:10308000BE17D6CF809158079091590790935B0750
:1030900080935A07CDCF97FD30C03296F0935B07EF
:1030A000E0935A07FB016491A62FB0E0B22B209168
:1030B00054073091550740915607509157070E9489
:1030C000281E6C507E4F8F4F9F4F28EE33E040E01C
:1030D00050E00E94E11D211531054105510511F512
:1030E00081E090E0A0E0B0E080935007909351071A
:1030F000A0935207B09353071DC080915807909139
:103100005907681B790B7F936F931F922F93DF935F
:10311000CF930E9413130F900F900F900F900F906A
:103120000F9086CF2093500730935107409352075A
:1031300050935307DF91CF91089581E00E94EE17DD
:1031400010925C0708951F920F920FB60F921124F0
:103150002F933F934F935F936F937F938F939F939F
:10316000AF93BF93EF93FF9380914E07882349F06D
:10317000E0916107F0916207808190916307892750
:1031800080838091500790915107A0915207B09190
:1031900053070197A109B1098093500790935107F4
:1031A000A0935207B0935307892B8A2B8B2B11F4D2
:1031B0000E941418FF91EF91BF91AF919F918F9151
:1031C0007F916F915F914F913F912F910F900FBE23
:1031D0000F901F9018951F920F920FB60F92112407
:1031E0002F933F934F935F936F937F938F939F930F
:1031F000AF93BF93EF93FF93E0916407F09165075E
:103200008081909166078927808380915C0788235D
:10321000C9F080915D0790915E07A0915F07B09122
:1032200060070197A109B10980935D0790935E073C
:10323000A0935F07B0936007892B8A2B8B2B11F427
:103240000E949D18FF91EF91BF91AF919F918F9137
:103250007F916F915F914F913F912F910F900FBE92
:103260000F901F90189541EE51E060E087E697E0DF
:103270000C9483110E94DF101092670708950F933A
:1032800094E1899FF0011124E859F84F948192301C
:1032900018F49F5F94830EC0148203810F5F038331
:1032A000063008F010824185528567817085228141
:1032B0000E9423110F91089594E1899FF001112438
:1032C000E859F84F2781308547855089240F351FED
:1032D000308727834185528561897289460F571F40
:1032E000528741879389903131F42585368524179B
:1032F0003507C4F420C0903431F425853685421753
:10330000530784F418C0903231F443855485421732
:10331000530744F410C0943071F443855485241746
:1033200035074CF0238534853087278325853685FE
:10333000328721871082418552856781708522817D
:103340000C940F11CF93DF9394E1899FE001112436
:10335000C859D84F49855A856F8178852A810E943E
:103360000F111882DF91CF9108951F93CF93DF93B0
:10337000182F84E1189FE0011124C859D84F9B8170
:103380009930A8F0993079F469857A858F8198858C
:103390000E94671149855A856F8178852A81812F1E
:1033A0000E94191111C086EF890F8A3018F49F5FAF
:1033B0009B830FC0943161F449855A856F8178856C
:1033C0002A81812F0E940F118B818F5F8B8301C017
:1033D0001882DF91CF911F910895CF93DF93C0E0C2
:1033E000D4E180916707C81708F5DC9FF00111242C
:1033F000E959F84F81818823B9F08281813069F0E1
:1034000040F0823071F0833079F48C2F0E94B5192E
:103410000BC08C2F0E943F1907C08C2F0E945C1993
:1034200003C08C2F0E94A219CF5FDBCFDF91CF9119
:103430000895EF92FF920F93CF93DF93242FC7E667
:10344000D7E0E88194E1E99FF0011124E859F84FB1
:1034500091E090831182A82FBB27A7FDB09512960B
:1034600094E0AA0FBB1F9A95E1F71782A08790E11D
:1034700069027001112492E0E90EF11C1186E286C6
:1034800085836683215022831382148200E040E00A
:103490005E2D60E07A2F88810E94231188818F5FE2
:1034A0008883DF91CF910F91FF90EF9008956F92F5
:1034B0007F928F929F92AF92BF92CF92DF92EF92C4
:1034C0000F93CF93DF93C7E6D7E0E88134E1E39F22
:1034D000F0011124E859F84F91E0908391839927E6
:1034E00087FD9095DC01129634E0AA0FBB1F3A9538
:1034F000E1F71782A087772767FD70956B0154E08D
:10350000CC0CDD1C5A95E1F732E0C30ED11C1186BC
:10351000C286642E772467FC7094530132E0A30EB8
:10352000B11CB4E0AA0CBB1CBA95E1F71386A486C3
:10353000822E992487FC9094540134E0AA0CBB1C81
:103540003A95E1F732E0A30EB11C1586A686681AFB
:10355000790A80E095E0689E5001699EB00C789EE3
:10356000B00C1124B08AA786861A970A889EB001EB
:10357000899E700D989E700D1124728B618B45830E
:10358000268301500283E38A202F40E05C2D60E017
:103590007A2F88810E940F1188818F5F8883DF9145
:1035A000CF910F91EF90DF90CF90BF90AF909F9011
:1035B0008F907F906F9008950F931F93CF93DF9319
:1035C000242FC7E6D7E0E88194E1E99FF0011124B8
:1035D000E859F84F91E0908392E09183A82FBB27A0
:1035E000A7FDB095129644E0AA0FBB1F4A95E1F7DC
:1035F0001782A08790E16902800111240E5F1F4F9E
:1036000011860287858366832150228340E0502FF4
:1036100060E07A2F88810E940F1188818F5F8883F4
:10362000DF91CF911F910F910895A7E6B7E0EC913C
:1036300094E1E99FF0011124E859F84F91E090835B
:1036400093E09183282F332727FD30952E5F3F4F3E
:1036500054E0220F331F5A95E1F71782208790E13B
:103660006902900111242E5F3F4F118622878583C6
:1036700066834150428313828C918F5F8C930895AF
:1036800020916707EEE6F7E090E0921779F0DF010E
:1036900015973C91333039F414963C91381303C09C
:1036A0003081361729F09F5F7496EFCF80E0089540
:1036B00081E008953091670788E697E020E02317BE
:1036C00041F04496FC0174974081411104C02F5F82
:1036D000F6CF81E0089580E008953091670789E68C
:1036E00097E020E0231741F04496FC017497408155
:1036F000423021F42F5FF6CF81E0089580E00895F5
:1037000090E0FC013197EF30F105B0F5EA5AFF4F38
:103710000C94221E809180008F7703C080918000DE
:103720008F7D80938000089580918000877FF9CFFE
:1037300084B58F7702C084B58F7D84BD0895809154
:1037400090008F7707C0809190008F7D03C080919B
:103750009000877F8093900008958091C0008F77BC
:1037600003C08091C0008F7D8093C0000895809138
:10377000C200877F8093C2000895CF93DF9390E0CB
:10378000FC01E854F54F2491FC01EA52F54F849175
:10379000882349F190E0880F991FFC01EE5FF44FF8
:1037A000A591B4918C50954FFC01C591D4919FB7D0
:1037B000611108C0F8948C91209582238C938881A4
:1037C00082230AC0623051F4F8948C91322F3095E4
:1037D00083238C938881822B888304C0F8948C91F6
:1037E000822B8C939FBFDF91CF9108950F931F93EE
:1037F000CF93DF931F92CDB7DEB7282F30E0F901CA
:10380000E656F54F8491F901E854F54F1491F9010A
:10381000EA52F54F04910023C9F0882321F069830F
:103820000E94801B6981E02FF0E0EE0FFF1FEC503B
:10383000F54FA591B4919FB7F8948C91611103C095
:103840001095812301C0812B8C939FBF0F90DF9136
:10385000CF911F910F910895CF93CFB7F894809196
:103860004809811127C0E7EEFAE08491E9ECFAE01B
:103870009491E82FF0E0EE0FFF1FEE5FF44FA5915B
:10388000B4918C91892321F461E081E10E94F61BBF
:1038900061E081E10E94BD1B8CB580618CBD8CB55F
:1038A00080648CBD61E08FE00E94BD1B61E080E11F
:1038B0000E94BD1B809148098F5F80934809CFBF4C
:1038C000CF9108954F925F926F927F928F929F92C5
:1038D000AF92BF92CF92DF92EF92FF920F931F931E
:1038E000FC0184849584A684B78404811581268193
:1038F00037814084518462847384B301A2014027DC
:10390000512762277327C080D180E280F380E8943A
:10391000F7F84C255D256E257F256A017B01CC0CCF
:10392000DD1CEE1CFF1CC426D526E626F726B501B5
:10393000A4017695679557954795482559256A2599
:103940007B254C255D256E257F25008311832283F1
:10395000338344875587668777874A015B0181E017
:1039600088229924AA24BB24B094A0949094809493
:10397000811C911CA11CB11C0089118922893389E9
:10398000082119212A213B21042515252625372523
:1039900004831583268337832AE0440F551F661F4F
:1039A000771F2A95D1F74C255D256E257F25048943
:1039B000158926893789082119212A213B21402789
:1039C00051276227732740875187628773871F912A
:1039D0000F91FF90EF90DF90CF90BF90AF909F90AE
:1039E0008F907F906F905F904F900895FC01408181
:1039F0005181628173817F77452B462B472BC1F51F
:103A00004481558166817781452B462B472B81F573
:103A10004085518562857385452B462B472B41F5A3
:103A20004485558566857785452B462B472B01F5C3
:103A300044E550E060E070E040835183628373832B
:103A400049E450E060E070E0448355836683778307
:103A50004EE450E060E070E04087518762877387F2
:103A600049E550E060E070E04487558766877787D6
:103A70000895CF92DF92EF92FF920F931F93CF930F
:103A8000DF93EC01488359836A837B838889998912
:103A9000AA89BB898C839D83AE83BF838C899D89D2
:103AA000AE89BF8988879987AA87BB87888D998DBA
:103AB000AA8DBB8D8C879D87AE87BF87C12CD12CEB
:103AC0007601C394F601E370FF27EE0FFF1FEE0FA0
:103AD000FF1FEC0FFD1FD6011197A370BB27AA0F84
:103AE000BB1FAA0FBB1FAC0FBD1F8D919D910D90E9
:103AF000BC91A02D9C01AD016EE15695479537957F
:103B000027956A95D1F7282739274A275B2765E645
:103B100079E887E09CE60E94BD1D6C0D7D1D8E1D21
:103B20009F1D0081118122813381062717272827B5
:103B3000392700831183228333838FEFC81AD80A71
:103B4000E80AF80A88E0C816D104E104F10409F093
:103B5000B9CFCE010E94F61C08E010E0CE010E9411
:103B6000621C01501109D1F7DF91CF911F910F9184
:103B7000FF90EF90DF90CF900895DB018F939F939C
:103B80000E94281EBF91AF91A29F800D911DA39FFF
:103B9000900DB29F900D1124089597FB072E16F4F7
:103BA000009407D077FD09D00E94331E07FC05D092
:103BB0003EF4909581959F4F0895709561957F4F44
:103BC0000895A1E21A2EAA1BBB1BFD010DC0AA1F5E
:103BD000BB1FEE1FFF1FA217B307E407F50720F076
:103BE000A21BB30BE40BF50B661F771F881F991FF1
:103BF0001A9469F760957095809590959B01AC013A
:103C0000BD01CF010895052E97FB1EF400940E947C
:103C10001A1E57FD07D00E94E11D07FC03D04EF489
:103C20000C941A1E50954095309521953F4F4F4F5B
:103C30005F4F089590958095709561957F4F8F4F58
:103C40009F4F0895EE0FFF1F0590F491E02D09940A
:103C50000E94471EA59F900DB49F900DA49F800DBC
:103C6000911D11240895AA1BBB1B51E107C0AA1F77
:103C7000BB1FA617B70710F0A61BB70B881F991F0D
:103C80005A95A9F780959095BC01CD010895A29F02
:103C9000B001B39FC001A39F700D811D1124911D20
:103CA000B29F700D811D1124911D0895F999FECFC9
:103CB00092BD81BDF89A992780B50895262FF9996C
:103CC000FECF1FBA92BD81BD20BD0FB6F894FA9AFF
:0C3CD000F99A0FBE01960895F894FFCFFA
:103CDC0000C18081000000FFFFFFFF00E100000039
:103CEC00000000CF01B5019B01810167014D015915
:103CFC00046B02510237021D020302E90173046FC7
:103D0C000355033B0321030703ED02D302B9029FC2
:103D1C00028502730459043F0425040B04F103D7F4
:103D2C0003BD03A303890300000000F70A3E0B2127
:103D3C000B310B0D0B1E0B47414D4500434C4541C0
:103D4C0052004F564552005B47616D6520616374AC
:103D5C003D25785D0054494E5900323034380053BB
:103D6C00434F524500424553540070616E656C2EB2
:103D7C00637070002573282564293A78203C205004
:103D8C00414E454C5F4D41585F43582026262079C3
:103D9C00203C2050414E454C5F4D41585F43590AE1
:103DAC00002573282564293A50616E656C2E766166
:103DBC00725B785D5B795D203D3D20300A002535D6
:103DCC0064007370726974652E63707000257328BB
:103DDC002564293A636872203C20320A005B536EDA
:0A3DEC00642025782025785D000092
:00000001FF
