:100000000C947A050C94A2050C94A2050C94A205FC
:100010000C94A2050C94A2050C94A2050C94A205C4
:100020000C94A2050C94A2050C9416090C94B60726
:100030000C94A2050C94A2050C94A2050C94A205A4
:100040000C94A2050C949F180C94A2050C94A20584
:100050000C94A2050C94A2050C94A2050C94B6096C
:100060000C94A2050C94A2050C94A2050C94A20574
:100070000C94A2050C94A2050C94A2050C94A20564
:100080000C9457180C94A2050C94A2050C94A2058C
:100090000C94A2050C94A2050C94A2050C94A20544
:1000A0000C94A2050C94A2050C94A2051201000266
:1000B000EF020140412336800001010203011201D9
:1000C00000020000004041233680000101020301CC
:1000D00041726475696E6F204C4C43005553422049
:1000E000494F20426F6172640004030904080B0049
:1000F00002020201000904000001020200000524BE
:100100000010010524010101042402060524060053
:10011000010705810310004009040100020A0000E4
:10012000000705020240000007058302400000109E
:100130000C00007FE040204F205FA059A047204CDA
:10014000205FA040207FE00000100C000000003F76
:10015000C020402F40224024402F4020403FC0007C
:10016000000000100C0000000000001F801080162E
:1001700080128010801F80000000000000100C0022
:10018000000000000000000F000B0009000F00003D
:1001900000000000000000100C0000000000000043
:1001A0000000000600060000000000000000000043
:1001B00000100C0000000000000000000002000021
:1001C0000000000000000000000000100C00007F94
:1001D000E0402042204E204E20422042205FA0409E
:1001E000207FE00000100C000000003FC0204022F3
:1001F0004026402240274020403FC0000000001021
:100200000C0000000000001F80108016801280107B
:10021000801F80000000000000100C0000000000A3
:100220000000000F000B0009000F0000000000009C
:10023000000000100C00000000000000000000069C
:1002400000060000000000000000000000100C008C
:10025000000000000000000000000002000000009C
:1002600000000000000000100C00007FE07DE0783E
:10027000E06020706078E0706062207FE07FE000E6
:1002800000100C00007FE07060602067206020702C
:10029000207F20702070607FE00000100C00007F45
:1002A000E070606020672060206020672060207020
:1002B000607FE00000100C00007FE060206020669E
:1002C000207C607CE078E079E079E07FE00000105D
:1002D0000C00007FE07060606067E0606060206735
:1002E00020602070607FE00000100C00007FE06064
:1002F00060606067E0606060207F20602060607FF9
:10030000E00000100C00007FE07E607C607860728E
:10031000606660602070207E607FE00000100C004E
:10032000007FE0606060207F20702070207F206070
:100330002060607FE00000100C00007FE0706060D3
:100340002067206620786071E0602060207FE000F8
:1003500000100C00007FE07CE070E070E07CE07C4E
:10036000E07CE0602060207FE00000100CFFF08067
:1003700010821087109FD08F9087108F909DD08013
:10038000108010FFF0100CFFF080108F909FD0981D
:10039000D09FD08FD080D08FD08F908010FFF01062
:1003A0000CFFF080108F909FD098D09FD09FD09856
:1003B000D09FD08F908010FFF0100CFFF080109F26
:1003C000D09FD099D083908310871086108610809C
:1003D00010FFF0100CFFF080108F909F9098109FEE
:1003E000909FD098D09FD08F908010FFF0100CFF7E
:1003F000F080109F909F9098109F909FD080D09FEA
:10040000D09F908010FFF0100CFFF080108190833F
:100410009087908D9099909FD08FD081908010FF81
:10042000F0100CFFF080109F909FD080D08FD08F65
:10043000D080D09FD09F908010FFF0100CFFF080F4
:10044000108F909FD098D099D087908E109FD09F7A
:10045000D08010FFF0100CFFF0801083108F108FF1
:10046000108310831083109FD09FD08010FFF0D591
:10047000F08D14A1C881CFD9F1AF20000000000099
:10048000003E5B4F5B3E3E6B4F6B3E1C3E7C3E1C1A
:10049000183C7E3C181C577D571C1C5E7F5E1C0060
:1004A000183C1800FFE7C3E7FF0018241800FFE717
:1004B000DBE7FF30483A060E2629792926407F05DA
:1004C0000507407F05253F5A3CE73C5A7F3E1C1CF0
:1004D00008081C1C3E7F14227F22145F5F005F5FB0
:1004E00006097F017F006689956A6060606060949C
:1004F000A2FFA29408047E040810207E20100808A1
:100500002A1C08081C2A08081E101010100C1E0CAB
:100510001E0C30383E3830060E3E0E06000000003D
:100520000000005F00000007000700147F147F1424
:10053000242A7F2A12231308646236495620500069
:1005400008070300001C2241000041221C002A1C55
:100550007F1C2A08083E0808008070300008080840
:100560000808000060600020100804023E51494560
:100570003E00427F400072494949462141494D337E
:100580001814127F1027454545393C4A49493141E5
:10059000211109073649494936464949291E0000B3
:1005A0001400000040340000000814224114141408
:1005B0001414004122140802015909063E415D59F4
:1005C0004E7C1211127C7F494949363E41414122FD
:1005D0007F4141413E7F494949417F090909013E27
:1005E000414151737F0808087F00417F410020404E
:1005F000413F017F081422417F404040407F021C60
:10060000027F7F0408107F3E4141413E7F09090976
:10061000063E4151215E7F09192946264949493242
:1006200003017F01033F4040403F1F2040201F3F08
:100630004038403F6314081463030478040361598D
:10064000494D43007F4141410204081020004141CF
:10065000417F04020102044040404040000307087B
:100660000020545478407F28444438384444442877
:10067000384444287F385454541800087E0902181E
:10068000A4A49C787F0804047800447D40002040A6
:10069000403D007F1028440000417F40007C0478EA
:1006A00004787C080404783844444438FC18242432
:1006B0001818242418FC7C080404084854545424B2
:1006C00004043F44243C4040207C1C2040201C3C2F
:1006D0004030403C44281028444C9090907C446426
:1006E000544C4400083641000000770000004136B9
:1006F000080002010204023C2623263C1EA1A1613F
:10070000123A4040207A3854545559215555794170
:100710002154547841215554784020545579400C47
:100720001E52721239555555593954545459395528
:100730005454580000457C410002457D420001456B
:100740007C40F0292429F0F0282528F07C545545D8
:10075000002054547C547C0A097F4932494949326B
:100760003248484832324A4848303A4141217A3A80
:1007700042402078009DA0A07D39444444393D404A
:1007800040403D3C24FF2424487E4943662B2FFCF7
:100790002F2BFF0929F620C0887E090320545479A5
:1007A000410000447D413048484A32384040227A76
:1007B000007A0A0A727D0D19317D2629292F2826F3
:1007C0002929292630484D402038080808080808FB
:1007D0000808382F10C8ACBA2F102834FA00007B54
:1007E000000008142A142222142A1408950022005A
:1007F00095AA005500AAAA55AA55AA000000FF0014
:10080000101010FF00141414FF001010FF00FF1050
:1008100010F010F0141414FC001414F700FF000082
:10082000FF00FF1414F404FC141417101F10101F01
:10083000101F1414141F00101010F0000000001FEF
:10084000101010101F10101010F010000000FF10FA
:100850001010101010101010FF10000000FF1400F6
:1008600000FF00FF00001F10170000FC04F4141428
:100870001710171414F404F40000FF00F7141414F4
:1008800014141414F700F7141414171410101F1074
:100890001F141414F4141010F010F000001F101F97
:1008A0000000001F14000000FC140000F010F01005
:1008B00010FF10FF141414FF141010101F0000007C
:1008C00000F010FFFFFFFFFFF0F0F0F0F0FFFFFF80
:1008D0000000000000FFFF0F0F0F0F0F38444438D7
:1008E000447C2A2A3E147E02020606027E027E0212
:1008F00063554941633844443C04407E201E200631
:10090000027E020299A5E7A5991C2A492A1C4C726D
:1009100001724C304A4D4D303048784830BC625AF4
:10092000463D3E494949007E0101017E2A2A2A2A84
:100930002A44445F444440514A444040444A514060
:100940000000FF0103E080FF000008086B6B083621
:1009500012362436060F090F060000181800000092
:100960001010003040FF0101001F01011E00191D81
:100970001712003C3C3C3C0000000000100011003D
:100980001200130015001600170018001A001C00B2
:100990001D001F00210023002500270029002C0036
:1009A0002E003100340037003A003E00410045007F
:1009B00049004E00520057005C00620068006E0063
:1009C00075007B0083008B0093009C00A500AF00A6
:1009D000B900C400D000DC00E900F70006011501F1
:1009E000260137014A015D01720188019F01B801AA
:1009F000D201EE010B022A024B026E029302BA02EE
:100A0000E40210033F037003A403DC03170455043E
:100A10009704DD0427057505C80520067D06E00658
:100A20004907B8072D08A9082D09B9094D0AEA0A8E
:100A3000900B400CFA0CC00D910E6F0F5A10531111
:100A40005B1272139A14D41520178018F519801BA5
:100A5000231DDE1EB420A622B524E4263429A72BAC
:100A6000402E0031EA330037453ABC3D68414C45E1
:100A70006B49C84D68524F57805C0062000000020D
:100A800000090F0000030401000C0000000000003A
:100A900000000000000000000000040802011040F7
:100AA00080401020408040800802040180402010D7
:100AB00002011080102040400404040404030405D3
:100AC00002020202040302020202060606060606EB
:100AD00004040202020400000000250028002B008C
:100AE0002E00310000000000240027002A002D0005
:100AF00030008B0B11241FBECFEFDAE0DEBFCDBF7D
:100B000012E0A0E0B1E0E6EFFCE302C005900D9238
:100B1000A232B107D9F729E0A2E2B2E001C01D92EA
:100B2000A135B207E1F715E0CAE7D5E004C0219787
:100B3000FE010E942F1EC937D107C9F70E94A505E3
:100B40000C94791E0C94000008950E94590A0E948A
:100B5000A40582E292E00E9496090E94A909C0E0E1
:100B6000D0E00E94AD092097E1F30E940000F9CF88
:100B7000615030F02091F100FC0120830196F8CF04
:100B8000289884E680932B02089540912602509184
:100B90002702209124023091250242175307B4F412
:100BA0009091E8009570E1F39091E80092FD19C0F2
:100BB0008093F100809126029091270201968F7315
:100BC0009927892B19F48EEF8093E80080912602F3
:100BD000909127020196909327028093260281E04C
:100BE000089580E00895EF92FF920F931F93CF93A3
:100BF000DF93F82E192FE62E042F81E0860F880F41
:100C00000E94C50583E00E94C505CF2DD12FEC0EB3
:100C1000FD2EF11CCE15DF05B9F007FF13C0FE0154
:100C200084910E94C505182F80E00E94C50581238C
:100C300021968111EFCFDF91CF911F910F91FF90FE
:100C4000EF9008958881EDCF81E0F5CF8091D700B6
:100C500081608093D70080EA8093D80089B5806155
:100C600089BD89B5826089BD09B400FEFDCF61E010
:100C700070E080E090E00E94310A8091D8008F7C83
:100C800080618093D8008091E000807F8093E000B5
:100C90000895CF93DF931F92CDB7DEB71982CE01AF
:100CA00001960E940C0B0E94240CBE016F5F7F4FC7
:100CB0000E94A00B89810F90DF91CF9108952FB7EB
:100CC000FC012083F89467706093E9000895CF9346
:100CD000DF931F92CDB7DEB7682FCE0101960E9439
:100CE0005F068091F20099819FBF0F90DF91CF91B5
:100CF0000895EF92FF920F931F93CF93DF931F926C
:100D0000CDB7DEB790912A02992379F157FD2DC016
:100D10008A017B01682FCE0101960E945F068091B7
:100D2000F20090E0081719070CF4C801282FF7010A
:100D300044E6215038F0289840932B023091F1007E
:100D40003193F7CF009739F02091F200211103C0C1
:100D50002BE62093E80029812FBF0F90DF91CF91E0
:100D60001F910F91FF90EF9008958FEF9FEFF5CFB8
:100D7000CF93DF931F92CDB7DEB741E050E0BE01C5
:100D80006F5F7F4F0E947906019731F4898190E06F
:100D90000F90DF91CF9108958FEF9FEFF9CFCF9311
:100DA000DF931F92CDB7DEB7682FCE0101960E9468
:100DB0005F069091E800892F807295FF04C09091A2
:100DC000F20080E4891B99819FBF0F90DF91CF9142
:100DD00008956F927F928F929F92AF92BF92CF921F
:100DE000DF92EF92FF920F931F93CF93DF931F92A7
:100DF000CDB7DEB7A82E6B01B42E052F80912A0245
:100E0000811112C08FEF9FEF0F90DF91CF911F9153
:100E10000F91FF90EF90DF90CF90BF90AF909F9099
:100E20008F907F906F900895E42EF52E8AEF982E84
:100E30008A2D8072882E9AE3792E8A2D8074682EEE
:100E4000E114F10409F449C08A2D0E94CF06182F3D
:100E500081110AC09A949920A9F261E070E080E0C3
:100E600090E00E94310AECCF8E151F0411F00CF0B7
:100E70001E2D6A2DCE0101960E945F068091E8002A
:100E800085FD03C089818FBFDBCF812F90E0E81AF9
:100E9000F90A882029F01150A0F01092F100FBCF40
:100EA000F601A7FC0AC0115050F021912093F100E7
:100EB000FACF24912093F10031961150D0F7C80E4B
:100EC000D91E8091E80085FF05C0E114F104D1F638
:100ED0006620C1F27092E800D5CF5D9884E68093D9
:100EE0002C028B2D902F90CF1092E90010922702A8
:100EF0001092260290932502809324020895DF9297
:100F0000EF92FF920F931F93CF93DF93D82E8A0116
:100F1000EB017B01E40EF51ECE15DF0559F0D7FE7F
:100F200012C0FE0184910E94C50521968111F4CF63
:100F30000FEF1FEFC801DF91CF911F910F91FF902D
:100F4000EF90DF9008958881EECFCF93DF93EB0190
:100F50002091E80022FFFCCF6C2F0E94B8058BEF98
:100F60008093E800CE01DF91CF9108951F920F92F8
:100F70000FB60F921124EF92FF920F931F932F93AE
:100F80003F934F935F936F937F938F939F93AF9311
:100F9000BF93EF93FF93CF93DF93CDB7DEB76C97FB
:100FA000DEBFCDBF1092E9008091E80083FF25C02D
:100FB00068E0CE0145960E94B80582EF8093E80074
:100FC0008D8987FF37C09091E80090FFFCCF982F64
:100FD000907609F00DC19E894F89588D2F89188D03
:100FE00091112FC0803851F5809129028093F10032
:100FF0001092F1008EEF8093E8006C960FB6F89493
:10100000DEBF0FBECDBFDF91CF91FF91EF91BF91BA
:10101000AF919F918F917F916F915F914F913F9190
:101020002F911F910F91FF90EF900F900FBE0F9097
:101030001F9018959EEF9093E800C9CF1092F10091
:10104000D7CF913059F48111D5CF4130510591F668
:10105000809129028D7F80932902CCCF933049F46F
:101060008111C8CF4130510529F680912902826053
:10107000F2CF953041F48091E80080FFFCCF2068EA
:101080002093E300B7CF963009F084C0EB8CFC8C42
:10109000123039F590E080E00E9474070E94490602
:1010A0001F8299E099831A8391E09E8390EA988742
:1010B0009AEF99872091260230912702275F3F4FB0
:1010C0003C832B838D83C7010E94740749E050E065
:1010D000BE016F5F7F4F80E00E947F070E9449063C
:1010E00089CFC7010E9474070E94240CBE016B5E69
:1010F0007F4F0E94C80B009731F00CF07BCF81E24C
:101100008093EB007ACF1130B1F48B8D9C8D0897D2
:1011100019F481E080932302809123026EEB70E04A
:10112000882311F06CEA70E0FB01449150E080E804
:101130000E947F075FCF133011F78F89882339F121
:10114000823049F440E86CE08CED90E00E94F305B9
:101150008823A9F24FCF813029F440E86BE080ED7D
:1011600090E0F4CF833059F60E94240C8E010F5F7B
:101170001F4FB8010E94E70BF80101900020E9F72A
:101180003197BF01601B710B40E0C801DFCF69EEF2
:1011900070E0CACF973009F4B2CF983021F481E0E3
:1011A0008093F10027CF993009F024CF837009F0A4
:1011B000A6CFE1E0F1E081E031E096E32191222346
:1011C00071F08093E9003093EB00DF0111972C91CF
:1011D0002093EC009093ED008F5F873079F78EE7D6
:1011E0008093EA001092EA008F8980932A0202CF4E
:1011F0008B8D9C8D0E947407898D811105C0CE0155
:1012000045960E94170BA4CF0E94240CBE016B5E72
:101210007F4F0E94060C9CCF8093E9008091F200E2
:10122000882319F08AE38093E80008951F920F92B3
:101230000FB60F9211242F933F934F935F936F93A9
:101240007F938F939F93AF93BF93CF93EF93FF932E
:10125000C091E1008091E100837F8093E100809361
:10126000E100C3FF0FC01092E90081E08093EB0022
:101270001092EC0082E38093ED0010922A0288E045
:101280008093F000C2FF1BC083E00E940C09809194
:101290002C02882341F080912C02815080932C02F3
:1012A000811101C05D9A80912B02882341F08091C9
:1012B0002B02815080932B02811101C0289AC4FF18
:1012C00023C08091E2008E7E81608093E200809155
:1012D000E1008F7E8093E100809128028E7E806104
:1012E00080932802FF91EF91CF91BF91AF919F9191
:1012F0008F917F916F915F914F913F912F910F90BF
:101300000FBE0F901F901895C0FFECCF8091E200A8
:101310008E7E80618093E2008091E1008E7E8093DA
:10132000E100809128028E7E8160DACF10922A023D
:1013300010922902109228020E942606E1EEF0E0A7
:1013400080818E7E80838DE08093E200559A209A82
:1013500008950E94380C0C94720C0E94640C88232F
:1013600021F00E94110D0C946E0C08951F920F92A3
:101370000FB60F9211242F933F938F939F93AF93A8
:10138000BF9380912E0290912F02A0913002B091D4
:10139000310230912D0223E0230F2D3758F50196AD
:1013A000A11DB11D20932D0280932E0290932F0238
:1013B000A0933002B09331028091320290913302B7
:1013C000A0913402B09135020196A11DB11D809308
:1013D000320290933302A0933402B0933502BF914E
:1013E000AF919F918F913F912F910F900FBE0F90D2
:1013F0001F90189526E8230F0296A11DB11DD2CF8C
:101400002FB7F89460912E0270912F0280913002D4
:10141000909131022FBF08953FB7F8948091320226
:1014200090913302A0913402B091350226B5A89B69
:1014300005C02F3F19F00196A11DB11D3FBFBA2F66
:10144000A92F982F8827BC01CD01620F711D811D26
:10145000911D42E0660F771F881F991F4A95D1F7AB
:101460000895CF92DF92EF92FF92CF93DF936B01BB
:101470007C010E940C0AEB01C114D104E104F104C7
:1014800039F4DF91CF91FF90EF90DF90CF900895E6
:101490000E94F6100E940C0A6C1B7D0B683E734084
:1014A00058F381E0C81AD108E108F108C851DC4FAF
:1014B000E3CF789484B5826084BD84B5816084BDB7
:1014C00085B5826085BD85B5816085BDEEE6F0E0BD
:1014D000808181608083E1E8F0E010828081826019
:1014E0008083808181608083E0E8F0E0808181609A
:1014F0008083E1E9F0E08081826080838081816087
:101500008083E0E9F0E0808181608083E1ECF0E0BD
:10151000808184608083808182608083808181601B
:101520008083E3ECF0E0808181608083E0ECF0E098
:10153000808182608083E2ECF0E080818160808342
:10154000EAE7F0E08081846080838081826080832C
:101550008081816080838081806880830895CF93BB
:10156000DF931F92CDB7DEB76983DC01ED91FC916B
:101570000280F381E02D41E050E0BE016F5F7F4FBC
:1015800009950F90DF91CF910895CF93DF93EC01F0
:101590008C859D8597FF05C082E00E94B8069D87D7
:1015A0008C878C859D85DF91CF91089583E00C9485
:1015B0000C09FC018485958597FD06C082E00E9498
:1015C000670690E00196089582E00E94670690E029
:1015D0000895FC018485958597FD05C02FEF3FEFA9
:1015E00035872487089582E00C94B806CF93DF9363
:1015F000EC0180911201882331F083E00E94E9061A
:101600001816190634F081E090E09B838A8380E00D
:1016100090E0DF91CF910895FC0190819E5F9083CF
:1016200042E450E06DEE70E080E80C947F07FC012E
:1016300091818081813A61F4913209F063C047E081
:1016400050E06BE071E080E00E947F0781E0089548
:10165000813209F057C0933269F482819381B0E0FE
:10166000A0E08093070190930801A0930901B09333
:101670000A01ECCF903209F047C067E070E08BE0E0
:1016800091E00E94A50780910B0190910C01A0911F
:101690000D01B0910E01803B9440A105B105E9F424
:1016A0008091120180FD19C080910008909101087D
:1016B0009093FF0A8093FE0A87E797E790930108CB
:1016C0008093000888E19BE00FB6F894A89580937A
:1016D00060000FBE90936000B9CF0FB6F894A89544
:1016E00080916000886180936000109260000FBE5E
:1016F000A8958091FE0A9091FF0A9093010880932B
:101700000008A4CF80E00895923209F09FCF828133
:1017100080931201B8CFE6E3F2E01382128288EEE2
:1017200093E0A0E0B0E084839583A683B78383E64B
:1017300091E0918380838FEF9FEF95878487089551
:10174000EF92FF920F931F93CF93DF937B01FC01E6
:10175000C281D38110E000E0209791F0E881F98107
:101760000280F381E02DB701CE01099597FD06C0F7
:10177000080F191F0884D985C02DEECF0FEF1FEF7A
:10178000C801DF91CF911F910F91FF90EF900895C5
:101790000F931F93CF93DF938B01FC01C281D38101
:1017A000209771F0E881F9810480F581E02DB8017E
:1017B000CE010995009731F40884D985C02DF0CF6A
:1017C00090E080E0DF91CF911F910F9108950F93EA
:1017D0001F93CF93DF938B01FC01C281D3812097AC
:1017E00071F0E881F9810680F781E02DB801CE0122
:1017F0000995080F111D0884D985C02DF0CFF80177
:101800001082DF91CF911F910F9108950F931F9335
:10181000CF93DF938B01FC01C281D381209771F0BC
:10182000E881F9810190F081E02DB801CE010995A0
:10183000811105C00884D985C02DF0CF80E0DF91EB
:10184000CF911F910F9108958091860281110DC053
:1018500082E080938E0284E080938F021092910246
:101860001092900281E0809386028EE892E00895C3
:10187000E4E6F0E080818064808380818160808301
:10188000808180688083808182608083E5E6F0E0EB
:101890008081816080830E9474140E9497130E944B
:1018A000DA160E941E130E9400140E946C140C94FD
:1018B000E21583B7817F83BF83B7816083BF88953B
:1018C00083B78E7F83BF0895CF930E94A513C82F3F
:1018D00081110E941F148C2FCF9108950E94F6143D
:1018E0000C94541541E050E060E082E992E00C94E1
:1018F000F7100E94E7180E94350D0E9445100E94C3
:1019000064100E94690D0E94690D81E0809392022B
:1019100008950E943C0D0E94CF0F0E9476100E94F5
:10192000CC190E94521B882339F00E946110882331
:1019300021F084E08093920208950E94460F811165
:10194000F8CF82E0F7CFCF93DF930E943C0D0E9447
:10195000CF0F0E9476100E946914C82F0E9466144F
:10196000D82FC7FF0FC00E94ED0E83E08093920234
:10197000DC70DC3021F40E94001010929202DF91A2
:10198000CF910895C6FF03C00E94BE0EEECFC4FFE4
:1019900003C00E941B0FE9CFC5FFEACF0E948F0E44
:1019A000E4CF0E943C0D0E94CF0F0E9476100E944F
:1019B000661B811102C00E94690D81E08093920232
:1019C00008950E943C0D0E94CF0F0E9476108FE672
:1019D00091E09F938F9386E08F931F920E9425152D
:1019E0000E9461100F900F900F900F908823B1F01C
:1019F00084E791E09F938F9387E08F931F920E94DB
:101A000025150F900F900F900F900E94691482FF80
:101A100004C00E9400101092920208958AE791E09B
:101A2000E9CF809192028230E1F088F48823A9F016
:101A30008130A9F01F928F938FE791E09F938F934E
:101A40000E94F7120F900F900F900F90089583301F
:101A500051F0843079F70C94E10C0C94790C0C94CF
:101A6000890C0C94A30C0C94D10C41E150E060E083
:101A700083E992E00C94F7108DE891E09F938F93A7
:101A80001F921F920E94251582E991E09F938F93E8
:101A900081E08F931F920E94251587E991E09F9323
:101AA0008F931F9280E18F930E9425158DE991E01D
:101AB0009F938F9382E08F9381E18F930E942515EE
:101AC0008DB79EB740960FB6F8949EBF0FBE8DBFE0
:101AD0000895EF92FF920F931F93CF93DF9380911E
:101AE000930260E170E0681B7109072E000C880BFF
:101AF000990B0E94AE1683E992E0D0E0FC01C0E0B1
:101B00002181211103C06623E9F06150CF5F349633
:101B1000C430B1F7DF5F0196D43081F71F9284E3C0
:101B20008F9382EA91E09F938F938CEA91E09F9349
:101B30008F930E94F7120F900F900F900F900F90BD
:101B40000F90CD2FED2EF12C84E0C89F8001112441
:101B5000F801ED56FD4FEE0DFF1D8181882399F0B0
:101B60001F9285E38F9382EA91E09F938F9389ED93
:101B700091E09F938F930E94F7120F900F900F9018
:101B80000F900F900F906AE070E080E090E00E946C
:101B9000AE1641E0693071058105910508F042E01B
:101BA0000D561D4FF801EE0DFF1D418380919302EC
:101BB0008F5F809393026D2F8C2FDF91CF911F91B8
:101BC0000F91FF90EF900C94F919EF920F93CF9330
:101BD000DF93C22F022E000CDD0B94E04902F001CE
:101BE000112484130DC062130BC0ED56FD4FEC0F92
:101BF000FD1F4181DF91CF910F91EF900C94D71A87
:101C0000E02E94E08902D0011124AD56BD4FA60FFD
:101C1000B11D67FDBA9511969C911197ED56FD4F38
:101C2000EC0FFD1F918311961C9201810E94391ABD
:101C3000DF91CF910F91EF9008958F929F92AF9285
:101C4000BF92CF92DF92EF92FF920F931F93CF93A9
:101C5000DF93182FF62E862E982EC42FC90DD22F63
:101C6000D80DC43010F4D430B0F0282D492D6F2D8C
:101C7000812F0E94E50DDF91CF911F910F91FF9071
:101C8000EF90DF90CF90BF90AF909F908F9008958E
:101C90008D2E9C2EE2CF34E0C302F0011124ED56CC
:101CA000FD4FED0FF11DD7FDFA955F018FEFA81ADB
:101CB000B80A8181882361F394E01902600111243C
:101CC000F601ED56FD4F6F01CF0CD11CF7FCDA94F5
:101CD000F60191818913C9CF6D2F8C2F0E943B1B78
:101CE0008111C3CFE02EF50100812D2F4C2F6F2DD8
:101CF000812F0E94391AF6011182F50140814F5F50
:101D000040836D2F8C2F0E94111BF50180810E9452
:101D1000501080919302815080939302ACCFCF9268
:101D2000DF92EF92FF920F93CF93DF930E94EE1812
:101D300086E9E82E82E0F82EC3E06701D0E0F601E4
:101D40008181882339F000E220E04FEF6C2F8D2F46
:101D50000E941D0EF4E0CF0ED11CDF5FD43079F766
:101D6000C15081E0E81AF108CF3F39F7DF91CF91F8
:101D70000F91FF90EF90DF90CF900895CF92DF9278
:101D8000EF92FF920F93CF93DF930E94EE1883E9B7
:101D9000E82E82E0F82EC0E06701D3E0F6018585E9
:101DA000882339F000E420E041E06C2F8D2F0E9461
:101DB0001D0ED150F4E0CF1AD108DF3F79F78FEF35
:101DC000E81AF80ACF5FC43039F7DF91CF910F914D
:101DD000FF90EF90DF90CF900895EF92FF920F93D6
:101DE0001F93CF93DF930E94EE1883E9E82E82E0E1
:101DF000F82E10E0C1E0D0E06C2F6150F701EC0F3D
:101E0000FD1F8081882331F000E82FEF40E0812F13
:101E10000E941D0E2196C530D10571F784E0E80EB1
:101E2000F11C1F5F143031F7DF91CF911F910F919B
:101E3000FF90EF900895EF92FF920F931F93CF932F
:101E4000DF930E94EE188FE9E82E82E0F82E13E06F
:101E5000C3E0D0E0F701EC0FFD1F8181882339F04A
:101E600000E121E040E06C2F812F0E941D0E2197A0
:101E700088F7115084E0E81AF1081F3F49F7DF9115
:101E8000CF911F910F91FF90EF900895CF92DF9225
:101E9000FF920F931F93CF93DF93CDB7DEB72897B1
:101EA0000FB6F894DEBF0FBECDBF80919302803194
:101EB00008F451C08091570190915801A0915901A7
:101EC000B0915A018D839E83AF83B88780915B0167
:101ED00090915C01A0915D01B0915E0189839A832C
:101EE000AB83BC8323E932E000E0BE01675F7F4F34
:101EF0006901F12CDE011596AE014F5F5F4F8D91A8
:101F0000982F9F0D9430A0F4FA018081102F180FA4
:101F1000143070F4F4E09F9FC00111248D569D4F42
:101F2000810F911DF6011181FC018181181799F033
:101F30004F5F5F4F6A177B0711F7F4E0CF0ED11C9C
:101F4000F39484E0F812D6CF2F5F3F4F0F5F043039
:101F500079F681E001C080E028960FB6F894DEBFE4
:101F60000FBECDBFDF91CF911F910F91FF90DF90FA
:101F7000CF90089580E190E00E9425130E944413C1
:101F8000611571058105910511F00E94EA1580E146
:101F900090E00E9425130E94F0150C948213FF928A
:101FA0000F931F93CF93DF9304EA12E0F80181812E
:101FB0008F9380818F93C6EFD1E0DF93CF9381E041
:101FC0008F9380E1F82EFF920E942515F8018381FE
:101FD0008F9382818F93DF93CF9383E08F93FF92D0
:101FE0000E942515EDB7FEB73C960FB6F894FEBFDC
:101FF0000FBEEDBFDF91CF911F910F91FF9008951C
:102000008091A4029091A5022091A6023091A7028E
:1020100082179307D0F09093A7028093A60290E0D6
:1020200080E00E94251382E30E94681380E30E94EF
:10203000681384E30E94681388E30E946813809108
:10204000A6029091A7020C947A1308951092A70209
:102050001092A60290E080E00E9425130E942A13AD
:10206000823391F40E942A13803371F40E942A1360
:10207000843351F40E942A13883331F40E943A13B6
:102080009093A7028093A602089545E050E060E097
:1020900084EA92E00E94F7100E94BA0F0C94261076
:1020A0008A3018F091E09093A8022091A402309118
:1020B000A502820F932F911D9093A5028093A402F5
:1020C00008958091A802089548E750E060E089EA09
:1020D00092E00C94F710E9EAF2E08081811110821D
:1020E000359683E0E132F807C1F70895CF93DF9387
:1020F000C9EAD2E08881882331F04B815C816A8112
:1021000089810E945F15259683E0C132D80791F737
:10211000DF91CF91089595E0899FF0011124E75553
:10212000FD4F718352833483238381E0808308953C
:10213000E22FF0E0EE0FFF1FED5BFE4F20813181BB
:102140000C948B10E22FF0E0EE0FFF1FE15DFE4FCD
:10215000208131810C948B10DF92EF92FF920F93CC
:102160001F93CF93DF93D82EEB017A0110E0000F7D
:10217000111F2230B0F01F928DE38F938AEF91E010
:102180009F938F9385E092E09F938F930E94F71225
:102190000F900F900F900F900F900F900D5E1E4FAD
:1021A00004C02111FBCF0F5D1E4FF801208131814A
:1021B000A701BE018D2DDF91CF911F910F91FF904F
:1021C000EF90DF900C948B10E9EAF2E08081882395
:1021D00039F08181891304C08281871301C0108284
:1021E000359683E0E132F80789F70895089541159F
:1021F000510549F01416150634F4FC016083415072
:1022000051090196F7CF08950F931F93CF938B0138
:10221000252F0E94DA1DFB01C82F1E161F063CF455
:10222000522FB801CF010E940411482F292FC05D01
:10223000E42FF22FC193CF01CF911F910F910895F9
:10224000AF92BF92CF92DF92EF92FF920F931F93C4
:10225000CF93DF935B01FA01102FFE2C0E94DA1D51
:102260006B01EC01161617061CF02230310554F0F4
:1022700021503109E12C012FAF01B501C6010E94A7
:102280002011FC01CF010196209721F4CD2811F4F3
:10229000FF2069F0C05DC083DF91CF911F910F9146
:1022A000FF90EF90DF90CF90BF90AF900895108394
:1022B000F3CF8F929F92AF92BF92CF92EF920F93F4
:1022C0001F93CF93DF934B015C01D02F1E2DCC2D9C
:1022D00080E188169104A104B10418F4223031057C
:1022E0008CF021503109CC2EE12C0D2FC501B40109
:1022F000E4E09695879577956795EA95D1F70E94E2
:102300005911AC0194012F703327CA010196211590
:10231000310549F489288A288B28B9F4111115C090
:10232000FA01D08307C02A30310578F0CA502C0F4B
:10233000FA012083DF91CF911F910F91EF90CF9001
:10234000BF90AF909F908F900895205DF1CFCF9276
:10235000DF92EF92FF92CF936B017C01C22F80E15D
:10236000C816D104E104F10458F0C70134E0969591
:102370008795779567953A95D1F70E94A711AC019B
:102380008FE0C822DD248AE0C816D10458F0CA5074
:10239000CC0EFA01C192CF01CF91FF90EF90DF9068
:1023A000CF90089580E3C80EF4CFDC01FB019D912E
:1023B000992311F09193FBCFCF0108952F923F9273
:1023C0004F925F926F927F928F929F92AF92BF9245
:1023D000CF92EF92FF920F931F93CF93DF9300D092
:1023E00000D0CDB7DEB79A838983DB01FA0110E212
:1023F000712C612C3DE2F32E2C91211119C0A98181
:10240000BA811C920F900F900F900F90DF91CF9197
:102410001F910F91FF90EF90CF90BF90AF909F9042
:102420008F907F906F905F904F903F902F90089586
:10243000253269F0AD014F5F5F4F5C834B83A9810B
:10244000BA812C935F011196BA83A98395C0119626
:102450002C911197203329F1AD014E5F5F4F5C83C2
:102460004B8330ED320F3A3008F0B0C0622E220FAD
:10247000770890E3691A71088B809C80AFEF8A1A05
:102480009A0AAB81BC812C912C3609F45DC08CF486
:10249000233609F490C0243639F1E981FA8110829B
:1024A000B1CFCD0103969C838B8310E312962C91C0
:1024B000D8CF233709F472C0283779F79C828B82F2
:1024C00021E0DF016D917D915D0190E080E02223AC
:1024D000A9F121E6C22EEE24E394012F9301498154
:1024E0005A810E94591120C09C828B8221E05F0199
:1024F000B2E0AB0EB11C8081918197FF09C091952C
:1025000081959109E981FA81F0823196FA83E98314
:10251000222369F0EE24E394012F930149815A812B
:102520006AE070E00E9420119A83898325C0498166
:102530005A816AE070E00E940411F6CF21E64981D9
:102540005A810E94A711F0CF5F01B4E0AB0EB11C1D
:10255000208031804280538081E6C82EEE24E394AF
:10256000012F930149815A81C201B1010E94591181
:102570009A8389839C828B82F501AB81BC813CCF9D
:102580005F0144E0A40EB11C208031804280538062
:1025900021E649815A81C201B101D3CF9C828B824D
:1025A0005F0152E0A50EB11C69817A818081918121
:1025B0000E94D511B9CF9C828B825F0182E0A80E68
:1025C000B11C2081A981BA812C933DCF2C36C1F258
:1025D0003CF4233691F3243609F05FCF20E087CF17
:1025E0002337F1F2283709F058CF20E06ACFCF9394
:1025F000DF93CDB7DEB7A8970FB6F894DEBF0FBE56
:10260000CDBFAE01435D5F4FFA0161917191AF01A2
:10261000CE0101960E94DE118E010F5F1F4FF12C3B
:10262000F80141918F01442331F060E08F2D0E9429
:102630000415F394F5CF0E94F614FFCF42E050E06A
:1026400060E081E293E00C94F71090932203809372
:1026500021030895F999FECF8091210390912203DF
:102660009C012F5F3F4F309322032093210340961C
:102670000C94631ECF930E942A13C82F0E942A1322
:10268000982F8C2FCF910895CF92DF92EF92FF92E7
:10269000CF93DF930E942A13C82F0E942A13D82FAA
:1026A0000E942A1390E0B0E0A0E07C01DD24CC245D
:1026B000DD2ACC2A0E942A13A7019601582BCA01B1
:1026C000B901DF91CF91FF90EF90DF90CF90089507
:1026D000F999FECF2091210330912203A9014F5F88
:1026E0005F4F5093220340932103682FC901409606
:1026F0000C946B1ECF93C92F0E9468138C2FCF911F
:102700000C9468131F93CF93DF93172FD82FC92FE3
:10271000862F0E946813812F0E9468138D2F0E94BC
:1027200068138C2FDF91CF911F910C94681341E1B6
:1027300050E060E083E293E00E94F710E3E2F3E010
:102740008CE3808380E184870895CF92DF92EF92BB
:10275000FF920F931F930E94000A209130032223BF
:1027600091F020912A03C62EC21AC0922E03209106
:102770002403309125032F5F3F4F3093250320938F
:102780002403109230030091260310912703209117
:10279000280330912903601771078207930738F4E3
:1027A000061B023010F00E94590C80E022C02091DC
:1027B00033032F5F2093330320912F036B017C01A0
:1027C000C20ED11CE11CF11C970186010093260367
:1027D00010932703209328033093290360932A033F
:1027E00070932B0380932C0390932D0381E08093AF
:1027F00030031F910F91FF90EF90DF90CF900895DD
:1028000045E050E060E084E393E00E94F71062E06E
:1028100084E10E94C61B62E083E10E94C61B62E065
:1028200082E10E94C61B62E085E10E94C61B62E055
:1028300087E00E94C61B62E088E00C94C61B4FB183
:102840008CB123B190E08095909533E09595879574
:102850003A95E1F78870992730E0209530953595C5
:1028600027953595279524703327822B942F9095A3
:10287000907F892B30913403909135039827232F33
:102880002095922390933503282F2095232320937E
:10289000360380933403907F21F490913803911193
:1028A0000FC0809337039AE090933803807F59F0EC
:1028B00080913803882349F081508093380308952C
:1028C00010923703F3CF10923803089580913403A8
:1028D000089580913503089508958EBD00000DB4CC
:1028E00007FEFDCF8EB50895CF92DF92EF92FF9253
:1028F0000F931F93CF93DF9340E054E060E089E3B0
:1029000093E00E94F7100E94301C8CB58C7F8CBD28
:102910008DB581608DBD61E084E00E94C61B61E0E1
:102920008CE00E94C61B61E086E00E94C61B61E04D
:1029300086E00E94021C61E070E080E090E00E946E
:10294000310A60E086E00E94021C6AE070E080E0EC
:1029500090E00E94310A61E086E00E94021CE4ECF3
:10296000FAE0E491F0E0EE0FFF1FEA52F54FC59157
:10297000D491ECEBFAE0E491F0E0EE0FFF1FEA52A5
:10298000F54FE590F490E6EAFAE01491EEE9FAE00A
:1029900004918881812B8883D7019C91802F809519
:1029A00089238C9388811095812388832FE6C22EFA
:1029B00024E0D22EF60184910E946D14FFEFCF1A0D
:1029C000DF0A8CE7C81684E0D806A1F7D701EC919E
:1029D000E02BEC93E8811E231883DF91CF911F91A8
:1029E0000F91FF90EF90DF90CF900895CF93DF93FA
:1029F000C9E3D3E089910E946D1487E0C933D807F9
:102A0000C9F7DF91CF9108958531F0F46830E0F493
:102A100095E04902A001112490E8699FD00111249A
:102A200096E0899FA00DB11D1124A75CBC4F90E0DA
:102A300080E044585B4FFA01E80FF91FE491ED93F1
:102A4000019685309105B9F708951F93CF93DF93D1
:102A5000CDB7DEB7A8970FB6F894DEBF0FBECDBFD7
:102A6000AE014E5C5F4F68A979A9CE0101960E9424
:102A7000DE1110E08EA5810FE1E0F0E0EC0FFD1F0C
:102A8000E10FF11D4081442329F06FA50E94041538
:102A90001F5FF0CFA8960FB6F894DEBF0FBECDBF74
:102AA000DF91CF911F91089589E393E0FC01002409
:102AB00011921192119211920394D1F708952F92CD
:102AC0003F924F925F926F927F928F929F92AF92BE
:102AD000BF92CF92DF92EF92FF920F931F93CF930B
:102AE000DF93FA01B490DA0112964F5F5F4FFA015B
:102AF0006490062E000C770B10E0AA24A394082EF5
:102B0000000C990B161509F44AC09B0143E035955A
:102B100027954A95E1F73695322F22273795279545
:102B2000FB01E770FF270A2D01C0000FEA95EAF7C5
:102B3000FD0150E01901280E391EDF015B1558F523
:102B40006034710540F58490B0E0A0E020E8922E5A
:102B5000C52FD0E06C01CC0EDD1E2E01420C531CA3
:102B60007601EA0EFB1E20E8E216F10460F4F82C70
:102B7000F92049F07201EA0EFB1EE701C75CDC4F49
:102B80007880702A788296941196A830B10541F722
:102B9000585F3196D2CF1F5F6F5F7F4FB3CFDF910A
:102BA000CF911F910F91FF90EF90DF90CF90BF904A
:102BB000AF909F908F907F906F905F904F903F90DD
:102BC0002F9008954BE952E16CE776EF89E397E0A7
:102BD0000C943C1DAB01BC0189E397E00C943C1DB7
:102BE0004F925F926F927F928F929F92AF92BF921D
:102BF000CF92DF92EF92FF920F931F93E9E3F7E0FA
:102C00000485158526853785C480D580E680F780C4
:102C1000408451846284738480809180A280B380D8
:102C2000E894B7F8D701C60184259525A625B725D0
:102C300088259925AA25BB25AC01BD01440F551F48
:102C4000661F771F4C015D0184269526A626B726B0
:102C5000D901C801B695A795979587950827192793
:102C60002A273B27082519252A253B25C082D18202
:102C7000E282F3820487158726873787B901A80186
:102C80004170552766277727709560955095419537
:102C90005F4F6F4F7F4F80899189A289B3898423C9
:102CA0009523A623B72384259525A625B7258483B8
:102CB0009583A683B78384899589A689B789482394
:102CC00059236A237B23D901C801072E7AE0880F94
:102CD000991FAA1FBB1F7A95D1F7702D88259925BA
:102CE000AA25BB2584279527A627B7278087918704
:102CF000A287B387892F9A2FAB2FBB278C0D9D1DE1
:102D0000AE1DBF1D082719272A273B278170992749
:102D1000AA27BB27B095A095909581959F4FAF4F5F
:102D2000BF4FC08CD18CE28CF38CBC01CD016C21E7
:102D30007D218E219F2160277127822793271F9154
:102D40000F91FF90EF90DF90CF90BF90AF909F904A
:102D50008F907F906F905F904F900895CF92DF9209
:102D6000EF92FF926B017C010E94F015A701960182
:102D70000E94EE1D97FF07C0909580957095619514
:102D80007F4F8F4F9F4FFF90EF90DF90CF90089530
:102D9000E1E7F0E080818D7F8083A5E5B7E0549680
:102DA000ED91FC915597908156968C918095892351
:102DB00080830895CF93DF934AE150E060E085E59A
:102DC00097E00E94F71061E085E00E94C61BEDEBE2
:102DD000FAE0E491F0E0EE0FFF1FEA52F54F859123
:102DE0009491C5E5D7E09D8B8C8BEFE9FAE0E491F7
:102DF000EE8B61E08DE00E94C61BE5ECFAE0E49109
:102E0000F0E0EE0FFF1FEA52F54F85919491988FF5
:102E10008F8BE7EAFAE0E491E98F10929000A1E944
:102E2000B0E01C9210928000E1E8F0E010828C91FA
:102E300088608C938C9181608C9380818860808382
:102E4000808181608083E5E6F0E08081877F8083F8
:102E5000E4E6F0E08081877F8083DF91CF91089561
:102E600090E0FC01EB5AF84F1182FC01EE0FFF1FBE
:102E7000E80FF91FEB5AF84FA489B5899C91868910
:102E8000809589238C9308954115510591E0690738
:102E90007105F0F096E076956795579547959A9568
:102EA000D1F793E04150510961097109811112C0B4
:102EB00080919100887F892B809391005093990095
:102EC0004093980080917100826080937100089512
:102ED00091E0E8CF80918100887F892B80938100E9
:102EE000509389004093880080916F0082608093A6
:102EF0006F000895CF93C82F813021F4809164072B
:102F0000811126C0E62FF0E0EE0FFF1FE458F64FC8
:102F10002591349150E040E0C11108C020935C0736
:102F200030935D0740935E0750935F07EC2FF0E00E
:102F3000EB5AF84F81E0818360E074E284EF90E027
:102F40000E94101EBA01A9018C2FCF910C94441736
:102F5000CF910895811102C00C94C81680916F0022
:102F60008D7F80936F00E0916C07F0916D079081E9
:102F700080916E0780958923808308950E94C816EA
:102F800081E00E94AA17109255070895CF93DF930E
:102F9000C5E1D2E0E0916207F0916307BF016F5F86
:102FA0007F4F7093630760936207A4919A2F907F7D
:102FB0008A2F8F70903909F440C0B8F5903809F421
:102FC00046C097FD50C03296F0936307E0936207C6
:102FD000FB016491BA2FA62F20915C0730915D0709
:102FE00040915E0750915F070E94351E6C507E4FE6
:102FF0008F4F9F4F28EE33E040E050E00E94EE1DDF
:10300000211531054105510509F042C081E090E0EC
:10301000A0E0B0E08093580790935907A0935A0717
:10302000B0935B07DF91CF910895903E99F0903F68
:1030300041F6DF91CF910C94BE173296F09363075F
:10304000E0936207FB0164910E947A17A3CF0E946C
:103050003017A0CF8091600790916107909363072C
:103060008093620797CF8091600790916107681BFA
:10307000790B7F936F931F92AF93DF93CF930E944F
:10308000F7120F900F900F900F900F900F9082CF2C
:10309000209358073093590740935A0750935B0782
:1030A000C1CF81E00E94AA171092640708951F9271
:1030B0000F920FB60F9211242F933F934F935F936C
:1030C0006F937F938F939F93AF93BF93EF93FF93F0
:1030D00080915607882349F0E0916907F0916A07CB
:1030E000808190916B078927808380915807909108
:1030F0005907A0915A07B0915B070197A109B1093F
:103100008093580790935907A0935A07B0935B0791
:10311000892B8A2B8B2B11F40E94C617FF91EF91FC
:10312000BF91AF919F918F917F916F915F914F91DF
:103130003F912F910F900FBE0F901F9018951F92E7
:103140000F920FB60F9211242F933F934F935F93DB
:103150006F937F938F939F93AF93BF93EF93FF935F
:10316000E0916C07F0916D07808190916E0789273F
:103170008083809164078823C9F0809165079091CE
:103180006607A0916707B09168070197A109B10987
:103190008093650790936607A0936707B0936807CD
:1031A000892B8A2B8B2B11F40E945118FF91EF91E0
:1031B000BF91AF919F918F917F916F915F914F914F
:1031C0003F912F910F900FBE0F901F90189541EED9
:1031D00051E060E08FE697E00C94F7100E946B10CE
:1031E00010926F0708950F93282F30E094E1899F84
:1031F000F0011124E159F84F9581923020F49F5F3E
:1032000095830F910895158204810F5F0483063022
:1032100008F0118294E1929FF001939FF00D112428
:10322000E159F84F428553856085718523810E945D
:10323000AC10E7CFCF93DF93682F70E094E1969FB7
:10324000F001979FF00D1124E159F84F4085518509
:1032500020893189240F351F31872087A285B385C6
:10326000428953894A0F5B1F53874287EB0121969E
:103270009C9FD0019D9FB00D1124A159B84F9C91E6
:103280009038B1F42685378524173507C4F494E1C6
:10329000969FF001979FF00D1124E159F84F428558
:1032A0005385608571852381DF91CF910C949810AF
:1032B0009031B9F4268537854217530744F394E1DA
:1032C000969FF001979FF00D1124E159F84F248546
:1032D0003585318720872685378533872287118278
:1032E000D6CF903231F444855585421753073CF7C9
:1032F000CECF903461F64485558524173507FCF60A
:10330000C6CFCF93DF9394E1899FE0011124C15987
:10331000D84F4A855B85688579852B810E949810F6
:103320001982DF91CF9108951F93CF93DF9394E19A
:10333000899FE0011124C159D84F9C81993030F404
:103340009F5F9C83DF91CF911F910895182F993033
:1033500091F46A857B85888599850E94E4104A8569
:103360005B85688579852B81812F0E94A2108C81D5
:103370008F5F8C83E7CF86EF890F8A3008F3943113
:1033800049F44A855B85688579852B81812F0E9468
:103390009810EDCF1982D6CFCF93DF93C0E0D4E160
:1033A00080916F07C81710F5DC9FF0011124E159D7
:1033B000F84F8181882341F08281813059F030F0CB
:1033C000823061F0833071F0CF5FEACF8C2F0E94A2
:1033D000F318FACF8C2F0E941A19F6CF8C2F0E9467
:1033E0008119F2CF8C2F0E949419EECFDF91CF91EB
:1033F0000895EF92FF920F93CF93DF93982F8FE66C
:10340000E82E87E0F82EF701808124E1829FF00109
:103410001124E159F84F21E021831282A92F092EAE
:10342000000CBB0B129624E0AA0FBB1F2A95E1F7F4
:103430001086A18720E16202E00111242296128603
:10344000C387968367832FEF240F2383148215820B
:1034500000E040E05C2F60E07A2F0E94AC10F701A2
:1034600080818F5F8083DF91CF910F91FF90EF90EC
:1034700008952F923F924F925F926F927F928F9218
:103480009F92AF92BF92CF92DF92EF920F93CF9322
:10349000DF939FE6C92E97E0D92EF6019081A92FE0
:1034A000B0E034E13A9FF0013B9FF00D1124E15967
:1034B000F84F51E051835283882E880F99081401E8
:1034C00082E0280E311C54E0220C331C5A95E1F79F
:1034D00010862186062E000C770B2B01C4E0440CCD
:1034E000551CCA95E1F782E0480E511C12864386AE
:1034F000A42E042E000CBB08E501229684E0CC0F1C
:10350000DD1F8A95E1F71486C587C22F022E000CB5
:10351000DD0B3E0154E0660C771C5A95E1F782E022
:10352000680E711C16866786A818B908812C85E07C
:10353000982EA89C3001A99C700CB89C700C11248A
:10354000718A608AC61BD70BC89DB001C99D700DDA
:10355000D89D700D1124738B628B468327832FEFC8
:10356000200F238311963A9FF0013B9FF00D112409
:10357000E159F84FE08240E0542D60E0722D892F30
:103580000E949810F60180818F5F8083DF91CF9138
:103590000F91EF90DF90CF90BF90AF909F908F9062
:1035A0007F906F905F904F903F902F9008950F9372
:1035B0001F93CF93DF93982F0FE617E0F8018081D8
:1035C00024E1829FF0011124E159F84F21E0218389
:1035D00022E02283A92F092E000CBB0B129624E0B7
:1035E000AA0FBB1F2A95E1F71086A18720E162028E
:1035F000E001112422961286C387968367832FEFFA
:10360000240F238340E05C2F60E07A2F0E94981003
:10361000F80180818F5F8083DF91CF911F910F919F
:103620000895AFE6B7E09C9124E1929FF001112448
:10363000E159F84F21E0218323E02283282F082E2F
:10364000000C330B2E5F3F4F54E0220F331F5A956F
:10365000E1F71086218750E16502900111242E5F69
:103660003F4F1286238786836783415043831482AA
:103670009F5F9C93089520916F07EFE6F7E090E03D
:10368000291761F03281333031F43681381303C0A9
:103690003781361729F09F5F7496F2CF80E0089546
:1036A00081E0089590916F072FE637E080E098174A
:1036B00049F02C5E3F4FF90173974081411104C0DE
:1036C0008F5FF5CF81E0089580E0089590916F07B6
:1036D0002FE637E080E0981749F02C5E3F4FF90164
:1036E00072974081423021F48F5FF5CF81E00895D9
:1036F00080E0089581508F3008F047C0E82FF0E057
:10370000EC57F44E0C942F1EA11BA51B931B991B69
:103710009D1BC51BC51BC51BA81BAE1BB21BB61B27
:10372000BC1BC51BC01B809180008F7780938000DD
:103730000895809180008F7DF9CF80918000877FF0
:10374000F5CF84B58F7784BD089584B58F7DFBCF89
:10375000809190008F7780939000089580919000E1
:103760008F7DF9CF80919000877FF5CF8091C00049
:103770008F778093C00008958091C0008F7DF9CF2E
:103780008091C200877F8093C2000895CF93DF931A
:1037900090E0FC01E656F54F24918854954FFC01CA
:1037A00084918823C9F090E0880F991FFC01EC51A7
:1037B000F54FA591B491FC01EA52F54FC591D49112
:1037C00061110DC09FB7F8948C91209582238C9342
:1037D0008881282328839FBFDF91CF91089562308D
:1037E00051F49FB7F8943C91822F809583238C935A
:1037F000E8812E2BEFCF8FB7F894EC912E2B2C93E2
:103800008FBFEACF1F93CF93DF93282F30E0F901CA
:10381000E458F54F8491F901E656F54FD491F9013A
:10382000E854F54FC491CC23A9F0162F81110E94C2
:103830007A1BEC2FF0E0EE0FFF1FEA52F54FA59137
:10384000B4918FB7F894EC91111108C0D095DE2394
:10385000DC938FBFDF91CF911F910895DE2BF8CFBE
:10386000CF93CFB7F89480915009811127C0E9EC2C
:10387000FAE08491EBEAFAE09491E82FF0E0EE0FA1
:10388000FF1FEC51F54FA591B491EC91E92321F480
:1038900061E081E10E94021C61E081E10E94C61B9F
:1038A0008CB580618CBD8CB580648CBD61E08FE08F
:1038B0000E94C61B61E080E10E94C61B80915009F6
:1038C0008F5F80935009CFBFCF9108954F925F9241
:1038D0006F927F928F929F92AF92BF92CF92DF9220
:1038E000EF92FF920F931F93FC01448455846684EA
:1038F000778484809580A680B780C084D184E28458
:10390000F38480819181A281B381BF77B501A40145
:103910004C255D256E257F2584279527A627B7276B
:103920008C019D01000F111F221F331F082719272B
:103930002A273B27B301A2017695679557954795AE
:10394000442555256625772540275127622773276B
:1039500080829182A282B382448755876687778767
:10396000DB01CA0181709927AA27BB27B095A095D2
:10397000909581959F4FAF4FBF4F80889188A288C7
:10398000B38888229922AA22BB22C824D924EA24F7
:10399000FB24C482D582E682F782C488D588E68873
:1039A000F7888C219D21AE21BF21032E3AE0440FE0
:1039B000551F661F771F3A95D1F7302D40275127A5
:1039C0006227732784279527A627B72780879187A3
:1039D000A287B3871F910F91FF90EF90DF90CF9058
:1039E000BF90AF909F908F907F906F905F904F901F
:1039F0000895FC0180819181A281B381BF77892BD9
:103A00008A2B8B2BC1F584819581A681B781892B67
:103A10008A2B8B2B81F580859185A285B385892B97
:103A20008A2B8B2B41F584859585A685B785892BB7
:103A30008A2B8B2B01F584E590E0A0E0B0E0808339
:103A40009183A283B38389E490E0A0E0B0E0848313
:103A50009583A683B7838EE490E0A0E0B0E08087F2
:103A60009187A287B38789E590E0A0E0B0E08487E2
:103A70009587A687B78708958F929F92AF92BF923E
:103A8000CF92DF92EF92FF920F931F93CF93DF932A
:103A9000EC01488359836A837B8388899989AA8941
:103AA000BB898C839D83AE83BF838C899D89AE89BE
:103AB000BF8988879987AA87BB87888D998DAA8DAA
:103AC000BB8D8C879D87AE87BF87C12CD12C76019B
:103AD000C394860103701127000F111F000F111FDF
:103AE0000C0F1D1FF6013197E370FF27EE0FFF1F2C
:103AF000EE0FFF1FEC0FFD1F80819181A281B3812A
:103B00009C01AD016EE156954795379527956A95CD
:103B1000D1F7282739274A275B2765E679E887E028
:103B20009CE60E94CA1D4B015C018C0C9D1CAE1CC6
:103B3000BF1CF80180819181A281B38188269926DA
:103B4000AA26BB2680829182A282B382FFEFCF1A7F
:103B5000DF0AEF0AFF0A88E0C816D104E104F10485
:103B600009F0B7CFCE010E94F91C08E010E0CE01A9
:103B70000E94661C01501109D1F7DF91CF911F916E
:103B80000F91FF90EF90DF90CF90BF90AF909F90FC
:103B90008F900895DB018F939F930E94351EBF91F4
:103BA000AF91A29F800D911DA39F900DB29F900D8C
:103BB0001124089597FB072E16F4009407D077FD83
:103BC00009D00E94401E07FC05D03EF490958195D7
:103BD0009F4F0895709561957F4F0895A1E21A2E29
:103BE000AA1BBB1BFD010DC0AA1FBB1FEE1FFF1FA1
:103BF000A217B307E407F50720F0A21BB30BE40BF1
:103C0000F50B661F771F881F991F1A9469F7609537
:103C10007095809590959B01AC01BD01CF010895F1
:103C2000052E97FB1EF400940E94271E57FD07D017
:103C30000E94EE1D07FC03D04EF40C94271E5095F5
:103C40004095309521953F4F4F4F5F4F0895909588
:103C50008095709561957F4F8F4F9F4F0895EE0F20
:103C6000FF1F0590F491E02D09940E94541EA59F1A
:103C7000900DB49F900DA49F800D911D1124089567
:103C8000AA1BBB1B51E107C0AA1FBB1FA617B70782
:103C900010F0A61BB70B881F991F5A95A9F780959E
:103CA0009095BC01CD010895A29FB001B39FC001C2
:103CB000A39F700D811D1124911DB29F700D811D58
:103CC0001124911D0895F999FECF92BD81BDF89AF6
:103CD000992780B50895262FF999FECF1FBA92BD76
:103CE00081BD20BD0FB6F894FA9AF99A0FBE0196DD
:063CF0000895F894FFCFD7
:103CF60000C18081000000FFFFFFFF00E10000001F
:103D0600000000B10197017D01630149012F013BCC
:103D1600044D0233021902FF01E501CB015504519E
:103D26000337031D030303E902CF02B5029B028199
:103D360002670255043B0421040704ED03D303B9CB
:103D4600039F0385036B03000100FFFF00010000D2
:103D5600000000AF0AF60AD90AE90AC50AD60A47D8
:103D6600414D4500434C454152004F564552005B7C
:103D760047616D65206163743D25785D0054494E49
:103D86005900323034380053434F524500424553B0
:103D9600540070616E656C2E637070002573282563
:103DA60064293A78203C2050414E454C5F4D41589D
:103DB6005F43582026262079203C2050414E454C12
:103DC6005F4D41585F43590A002573282564293AF7
:103DD60050616E656C2E7661725B785D5B795D20F5
:103DE6003D3D20300A0025356400737072697465A4
:103DF6002E637070002573282564293A6368722043
:103E06003C20320A005B536E642025782025785DBD
:023E16000000AA
:00000001FF
